{"contracts/Voting.sol":{"Voting":{"abi":[{"inputs":[],"stateMutability":"nonpayable","type":"constructor"},{"inputs":[],"name":"Ids","outputs":[{"internalType":"uint256","name":"_value","type":"uint256"}],"stateMutability":"view","type":"function"},{"inputs":[{"internalType":"uint256","name":"","type":"uint256"}],"name":"candidateArray","outputs":[{"internalType":"uint256","name":"id","type":"uint256"},{"internalType":"string","name":"fullName","type":"string"},{"internalType":"string","name":"party","type":"string"},{"internalType":"string","name":"pdfUrl","type":"string"},{"internalType":"string","name":"imageUrl","type":"string"},{"internalType":"string","name":"projectDescription","type":"string"},{"internalType":"uint256","name":"numberOfVotes","type":"uint256"},{"internalType":"bool","name":"created","type":"bool"}],"stateMutability":"view","type":"function"},{"inputs":[{"internalType":"uint256","name":"","type":"uint256"}],"name":"candidateMap","outputs":[{"internalType":"uint256","name":"id","type":"uint256"},{"internalType":"string","name":"fullName","type":"string"},{"internalType":"string","name":"party","type":"string"},{"internalType":"string","name":"pdfUrl","type":"string"},{"internalType":"string","name":"imageUrl","type":"string"},{"internalType":"string","name":"projectDescription","type":"string"},{"internalType":"uint256","name":"numberOfVotes","type":"uint256"},{"internalType":"bool","name":"created","type":"bool"}],"stateMutability":"view","type":"function"},{"inputs":[{"internalType":"string","name":"","type":"string"}],"name":"candidateToId","outputs":[{"internalType":"uint256","name":"","type":"uint256"}],"stateMutability":"view","type":"function"},{"inputs":[],"name":"contractOwner","outputs":[{"internalType":"address","name":"","type":"address"}],"stateMutability":"view","type":"function"},{"inputs":[{"internalType":"string","name":"candidateName","type":"string"},{"internalType":"string","name":"candidateParty","type":"string"},{"internalType":"string","name":"pdf_url","type":"string"},{"internalType":"string","name":"imageURL","type":"string"},{"internalType":"string","name":"description","type":"string"}],"name":"createCandidate","outputs":[],"stateMutability":"nonpayable","type":"function"},{"inputs":[{"internalType":"uint256","name":"_id","type":"uint256"}],"name":"getCandidateInfo","outputs":[{"components":[{"internalType":"uint256","name":"id","type":"uint256"},{"internalType":"string","name":"fullName","type":"string"},{"internalType":"string","name":"party","type":"string"},{"internalType":"string","name":"pdfUrl","type":"string"},{"internalType":"string","name":"imageUrl","type":"string"},{"internalType":"string","name":"projectDescription","type":"string"},{"internalType":"uint256","name":"numberOfVotes","type":"uint256"},{"internalType":"bool","name":"created","type":"bool"}],"internalType":"struct Voting.candidate","name":"","type":"tuple"}],"stateMutability":"view","type":"function"},{"inputs":[],"name":"getCandidates","outputs":[{"components":[{"internalType":"uint256","name":"id","type":"uint256"},{"internalType":"string","name":"fullName","type":"string"},{"internalType":"string","name":"party","type":"string"},{"internalType":"string","name":"pdfUrl","type":"string"},{"internalType":"string","name":"imageUrl","type":"string"},{"internalType":"string","name":"projectDescription","type":"string"},{"internalType":"uint256","name":"numberOfVotes","type":"uint256"},{"internalType":"bool","name":"created","type":"bool"}],"internalType":"struct Voting.candidate[]","name":"","type":"tuple[]"}],"stateMutability":"view","type":"function"},{"inputs":[],"name":"getUsers","outputs":[{"components":[{"internalType":"string","name":"cin","type":"string"},{"internalType":"string","name":"city","type":"string"},{"internalType":"string","name":"country","type":"string"},{"internalType":"string","name":"gender","type":"string"},{"internalType":"uint256","name":"age","type":"uint256"},{"internalType":"uint256","name":"voteFor","type":"uint256"},{"internalType":"bool","name":"voted","type":"bool"}],"internalType":"struct Voting.user[]","name":"","type":"tuple[]"}],"stateMutability":"view","type":"function"},{"inputs":[{"internalType":"address","name":"","type":"address"}],"name":"userAddressToCin","outputs":[{"internalType":"string","name":"","type":"string"}],"stateMutability":"view","type":"function"},{"inputs":[{"internalType":"uint256","name":"","type":"uint256"}],"name":"userArray","outputs":[{"internalType":"string","name":"cin","type":"string"},{"internalType":"string","name":"city","type":"string"},{"internalType":"string","name":"country","type":"string"},{"internalType":"string","name":"gender","type":"string"},{"internalType":"uint256","name":"age","type":"uint256"},{"internalType":"uint256","name":"voteFor","type":"uint256"},{"internalType":"bool","name":"voted","type":"bool"}],"stateMutability":"view","type":"function"},{"inputs":[{"internalType":"string","name":"","type":"string"}],"name":"userMap","outputs":[{"internalType":"string","name":"cin","type":"string"},{"internalType":"string","name":"city","type":"string"},{"internalType":"string","name":"country","type":"string"},{"internalType":"string","name":"gender","type":"string"},{"internalType":"uint256","name":"age","type":"uint256"},{"internalType":"uint256","name":"voteFor","type":"uint256"},{"internalType":"bool","name":"voted","type":"bool"}],"stateMutability":"view","type":"function"},{"inputs":[{"internalType":"uint256","name":"candidateId","type":"uint256"},{"internalType":"string","name":"_cin","type":"string"},{"internalType":"string","name":"_city","type":"string"},{"internalType":"string","name":"_country","type":"string"},{"internalType":"string","name":"_gender","type":"string"},{"internalType":"uint256","name":"_age","type":"uint256"}],"name":"vote","outputs":[],"stateMutability":"nonpayable","type":"function"}],"evm":{"bytecode":{"linkReferences":{},"object":"608060405234801561001057600080fd5b506001600055600280546001600160a01b031916331790556122db806100376000396000f3fe608060405234801561001057600080fd5b50600436106100ce5760003560e01c80636847a4511161008c578063b87f6a0a11610066578063b87f6a0a146101f4578063ce606ee0146101fe578063eb15f38014610229578063fdc159091461023c57600080fd5b80636847a4511461017b57806370f67cfe146101b4578063a0b67cf1146101d457600080fd5b8062ce8e3e146100d357806306a49fce146100f15780630a4fa33114610106578063178071151461012d57806335a893a11461014257806341209af114610155575b600080fd5b6100db61024f565b6040516100e891906119d9565b60405180910390f35b6100f961051f565b6040516100e89190611b65565b610119610114366004611bc7565b610879565b6040516100e8989796959493929190611be0565b61014061013b366004611d0a565b610b66565b005b610119610150366004611bc7565b610f60565b610168610163366004611bc7565b610f95565b6040516100e89796959493929190611dc9565b6101a6610189366004611e38565b805160208183018101805160048252928201919093012091525481565b6040519081526020016100e8565b6101c76101c2366004611bc7565b61120c565b6040516100e89190611e75565b6101e76101e2366004611e8f565b611579565b6040516100e89190611eb8565b6001546101a69081565b600254610211906001600160a01b031681565b6040516001600160a01b0390911681526020016100e8565b610168610237366004611e38565b611613565b61014061024a366004611ecb565b611639565b60606008805480602002602001604051908101604052809291908181526020016000905b8282101561051657838290600052602060002090600702016040518060e00160405290816000820180546102a690611f9d565b80601f01602080910402602001604051908101604052809291908181526020018280546102d290611f9d565b801561031f5780601f106102f45761010080835404028352916020019161031f565b820191906000526020600020905b81548152906001019060200180831161030257829003601f168201915b5050505050815260200160018201805461033890611f9d565b80601f016020809104026020016040519081016040528092919081815260200182805461036490611f9d565b80156103b15780601f10610386576101008083540402835291602001916103b1565b820191906000526020600020905b81548152906001019060200180831161039457829003601f168201915b505050505081526020016002820180546103ca90611f9d565b80601f01602080910402602001604051908101604052809291908181526020018280546103f690611f9d565b80156104435780601f1061041857610100808354040283529160200191610443565b820191906000526020600020905b81548152906001019060200180831161042657829003601f168201915b5050505050815260200160038201805461045c90611f9d565b80601f016020809104026020016040519081016040528092919081815260200182805461048890611f9d565b80156104d55780601f106104aa576101008083540402835291602001916104d5565b820191906000526020600020905b8154815290600101906020018083116104b857829003601f168201915b505050918352505060048201546020808301919091526005830154604083015260069092015460ff1615156060909101529082526001929092019101610273565b50505050905090565b60606005805480602002602001604051908101604052809291908181526020016000905b828210156105165783829060005260206000209060080201604051806101000160405290816000820154815260200160018201805461058190611f9d565b80601f01602080910402602001604051908101604052809291908181526020018280546105ad90611f9d565b80156105fa5780601f106105cf576101008083540402835291602001916105fa565b820191906000526020600020905b8154815290600101906020018083116105dd57829003601f168201915b5050505050815260200160028201805461061390611f9d565b80601f016020809104026020016040519081016040528092919081815260200182805461063f90611f9d565b801561068c5780601f106106615761010080835404028352916020019161068c565b820191906000526020600020905b81548152906001019060200180831161066f57829003601f168201915b505050505081526020016003820180546106a590611f9d565b80601f01602080910402602001604051908101604052809291908181526020018280546106d190611f9d565b801561071e5780601f106106f35761010080835404028352916020019161071e565b820191906000526020600020905b81548152906001019060200180831161070157829003601f168201915b5050505050815260200160048201805461073790611f9d565b80601f016020809104026020016040519081016040528092919081815260200182805461076390611f9d565b80156107b05780601f10610785576101008083540402835291602001916107b0565b820191906000526020600020905b81548152906001019060200180831161079357829003601f168201915b505050505081526020016005820180546107c990611f9d565b80601f01602080910402602001604051908101604052809291908181526020018280546107f590611f9d565b80156108425780601f1061081757610100808354040283529160200191610842565b820191906000526020600020905b81548152906001019060200180831161082557829003601f168201915b5050509183525050600682015460208083019190915260079092015460ff1615156040909101529082526001929092019101610543565b6003602052600090815260409020805460018201805491929161089b90611f9d565b80601f01602080910402602001604051908101604052809291908181526020018280546108c790611f9d565b80156109145780601f106108e957610100808354040283529160200191610914565b820191906000526020600020905b8154815290600101906020018083116108f757829003601f168201915b50505050509080600201805461092990611f9d565b80601f016020809104026020016040519081016040528092919081815260200182805461095590611f9d565b80156109a25780601f10610977576101008083540402835291602001916109a2565b820191906000526020600020905b81548152906001019060200180831161098557829003601f168201915b5050505050908060030180546109b790611f9d565b80601f01602080910402602001604051908101604052809291908181526020018280546109e390611f9d565b8015610a305780601f10610a0557610100808354040283529160200191610a30565b820191906000526020600020905b815481529060010190602001808311610a1357829003601f168201915b505050505090806004018054610a4590611f9d565b80601f0160208091040260200160405190810160405280929190818152602001828054610a7190611f9d565b8015610abe5780601f10610a9357610100808354040283529160200191610abe565b820191906000526020600020905b815481529060010190602001808311610aa157829003601f168201915b505050505090806005018054610ad390611f9d565b80601f0160208091040260200160405190810160405280929190818152602001828054610aff90611f9d565b8015610b4c5780601f10610b2157610100808354040283529160200191610b4c565b820191906000526020600020905b815481529060010190602001808311610b2f57829003601f168201915b50505050600683015460079093015491929160ff16905088565b610b6e611930565b60008681526003602052604090206007015460ff16610bd45760405162461bcd60e51b815260206004820152601960248201527f4e6f2063616e646964617465207769746820746869732049640000000000000060448201526064015b60405180910390fd5b600685604051610be49190611fd7565b9081526040519081900360200190206006015460ff1615610c3c5760405162461bcd60e51b8152602060048201526012602482015271596f7520616c726561647920766f7465642160701b6044820152606401610bcb565b33600090815260076020526040908190209051600691610c5b91611ff3565b9081526040519081900360200190206006015460ff1615610ce45760405162461bcd60e51b815260206004820152603e60248201527f546869732077616c6c6574206164647265737320697320616c7265616479206c60448201527f696e6b656420746f20612043494e20746861742068617320766f7465642100006064820152608401610bcb565b6040518060e0016040528086815260200185815260200184815260200183815260200182815260200187815260200160011515815250600686604051610d2a9190611fd7565b90815260405190819003602001902081518190610d4790826120b4565b5060208201516001820190610d5c90826120b4565b5060408201516002820190610d7190826120b4565b5060608201516003820190610d8690826120b4565b506080820151600482015560a0820151600582015560c0909101516006918201805460ff191691151591909117905560405160089190610dc7908890611fd7565b90815260405160209181900382019020825460018101845560009384529190922060079091020180610df98382612174565b50600181810190610e0c90840182612174565b50600281810190610e1f90840182612174565b50600381810190610e3290840182612174565b506004828101549082015560058083015490820155600691820154908201805460ff191660ff909216151591909117905560008781526003602052604090200154610e7e90600161225d565b6000878152600360209081526040808320600601939093553382526007905220610ea886826120b4565b5060005b600554811015610f4d578660058281548110610eca57610eca612276565b90600052602060002090600802016000015403610f3b5760058181548110610ef457610ef4612276565b9060005260206000209060080201600601546001610f12919061225d565b60058281548110610f2557610f25612276565b9060005260206000209060080201600601819055505b80610f458161228c565b915050610eac565b50610f586001600055565b505050505050565b60058181548110610f7057600080fd5b6000918252602090912060089091020180546001820180549193509061089b90611f9d565b60088181548110610fa557600080fd5b9060005260206000209060070201600091509050806000018054610fc890611f9d565b80601f0160208091040260200160405190810160405280929190818152602001828054610ff490611f9d565b80156110415780601f1061101657610100808354040283529160200191611041565b820191906000526020600020905b81548152906001019060200180831161102457829003601f168201915b50505050509080600101805461105690611f9d565b80601f016020809104026020016040519081016040528092919081815260200182805461108290611f9d565b80156110cf5780601f106110a4576101008083540402835291602001916110cf565b820191906000526020600020905b8154815290600101906020018083116110b257829003601f168201915b5050505050908060020180546110e490611f9d565b80601f016020809104026020016040519081016040528092919081815260200182805461111090611f9d565b801561115d5780601f106111325761010080835404028352916020019161115d565b820191906000526020600020905b81548152906001019060200180831161114057829003601f168201915b50505050509080600301805461117290611f9d565b80601f016020809104026020016040519081016040528092919081815260200182805461119e90611f9d565b80156111eb5780601f106111c0576101008083540402835291602001916111eb565b820191906000526020600020905b8154815290600101906020018083116111ce57829003601f168201915b50505050600483015460058401546006909401549293909290915060ff1687565b611256604051806101000160405280600081526020016060815260200160608152602001606081526020016060815260200160608152602001600081526020016000151581525090565b60036000838152602001908152602001600020604051806101000160405290816000820154815260200160018201805461128f90611f9d565b80601f01602080910402602001604051908101604052809291908181526020018280546112bb90611f9d565b80156113085780601f106112dd57610100808354040283529160200191611308565b820191906000526020600020905b8154815290600101906020018083116112eb57829003601f168201915b5050505050815260200160028201805461132190611f9d565b80601f016020809104026020016040519081016040528092919081815260200182805461134d90611f9d565b801561139a5780601f1061136f5761010080835404028352916020019161139a565b820191906000526020600020905b81548152906001019060200180831161137d57829003601f168201915b505050505081526020016003820180546113b390611f9d565b80601f01602080910402602001604051908101604052809291908181526020018280546113df90611f9d565b801561142c5780601f106114015761010080835404028352916020019161142c565b820191906000526020600020905b81548152906001019060200180831161140f57829003601f168201915b5050505050815260200160048201805461144590611f9d565b80601f016020809104026020016040519081016040528092919081815260200182805461147190611f9d565b80156114be5780601f10611493576101008083540402835291602001916114be565b820191906000526020600020905b8154815290600101906020018083116114a157829003601f168201915b505050505081526020016005820180546114d790611f9d565b80601f016020809104026020016040519081016040528092919081815260200182805461150390611f9d565b80156115505780601f1061152557610100808354040283529160200191611550565b820191906000526020600020905b81548152906001019060200180831161153357829003601f168201915b50505091835250506006820154602082015260079091015460ff16151560409091015292915050565b6007602052600090815260409020805461159290611f9d565b80601f01602080910402602001604051908101604052809291908181526020018280546115be90611f9d565b801561160b5780601f106115e05761010080835404028352916020019161160b565b820191906000526020600020905b8154815290600101906020018083116115ee57829003601f168201915b505050505081565b8051602081830181018051600682529282019190930120915280548190610fc890611f9d565b611641611930565b6002546001600160a01b0316331461169b5760405162461bcd60e51b815260206004820152601f60248201527f596f7520617265206e6f742074686520636f6e7472616374206f776e657221006044820152606401610bcb565b6004856040516116ab9190611fd7565b9081526020016040518091039020546000146117095760405162461bcd60e51b815260206004820152601960248201527f43616e64696461746520616c72656164792065786973747321000000000000006044820152606401610bcb565b611717600180546001019055565b600061172260015490565b905060405180610100016040528082815260200187815260200186815260200185815260200184815260200183815260200160008152602001600115158152506003600083815260200190815260200160002060008201518160000155602082015181600101908161179491906120b4565b50604082015160028201906117a990826120b4565b50606082015160038201906117be90826120b4565b50608082015160048201906117d390826120b4565b5060a082015160058201906117e890826120b4565b5060c0820151600682015560e0909101516007909101805460ff1916911515919091179055600081815260036020526040812060058054600181810183559190935281547f036b6384b5eca791c62761152d0c79bb0604c104a5fb6f4eb0703f3154bb3db0600890940293840190815591927f036b6384b5eca791c62761152d0c79bb0604c104a5fb6f4eb0703f3154bb3db1019061188990840182612174565b5060028181019061189c90840182612174565b506003818101906118af90840182612174565b506004818101906118c290840182612174565b506005818101906118d590840182612174565b50600682810154908201556007918201549101805460ff191660ff9092161515919091179055604051819060049061190e908990611fd7565b90815260405190819003602001902055506119296001600055565b5050505050565b6002600054036119825760405162461bcd60e51b815260206004820152601f60248201527f5265656e7472616e637947756172643a207265656e7472616e742063616c6c006044820152606401610bcb565b6002600055565b60005b838110156119a457818101518382015260200161198c565b50506000910152565b600081518084526119c5816020860160208601611989565b601f01601f19169290920160200192915050565b60006020808301818452808551808352604092508286019150828160051b87010184880160005b83811015611aa757603f19898403018552815160e08151818652611a26828701826119ad565b915050888201518582038a870152611a3e82826119ad565b9150508782015185820389870152611a5682826119ad565b91505060608083015186830382880152611a7083826119ad565b6080858101519089015260a0808601519089015260c094850151151594909701939093525050509386019390860190600101611a00565b509098975050505050505050565b6000610100825184526020830151816020860152611ad5828601826119ad565b91505060408301518482036040860152611aef82826119ad565b91505060608301518482036060860152611b0982826119ad565b91505060808301518482036080860152611b2382826119ad565b91505060a083015184820360a0860152611b3d82826119ad565b91505060c083015160c085015260e0830151611b5d60e086018215159052565b509392505050565b6000602080830181845280855180835260408601915060408160051b870101925083870160005b82811015611bba57603f19888603018452611ba8858351611ab5565b94509285019290850190600101611b8c565b5092979650505050505050565b600060208284031215611bd957600080fd5b5035919050565b60006101008a8352806020840152611bfa8184018b6119ad565b90508281036040840152611c0e818a6119ad565b90508281036060840152611c2281896119ad565b90508281036080840152611c3681886119ad565b905082810360a0840152611c4a81876119ad565b60c0840195909552505090151560e0909101529695505050505050565b634e487b7160e01b600052604160045260246000fd5b600082601f830112611c8e57600080fd5b813567ffffffffffffffff80821115611ca957611ca9611c67565b604051601f8301601f19908116603f01168101908282118183101715611cd157611cd1611c67565b81604052838152866020858801011115611cea57600080fd5b836020870160208301376000602085830101528094505050505092915050565b60008060008060008060c08789031215611d2357600080fd5b86359550602087013567ffffffffffffffff80821115611d4257600080fd5b611d4e8a838b01611c7d565b96506040890135915080821115611d6457600080fd5b611d708a838b01611c7d565b95506060890135915080821115611d8657600080fd5b611d928a838b01611c7d565b94506080890135915080821115611da857600080fd5b50611db589828a01611c7d565b92505060a087013590509295509295509295565b60e081526000611ddc60e083018a6119ad565b8281036020840152611dee818a6119ad565b90508281036040840152611e0281896119ad565b90508281036060840152611e1681886119ad565b6080840196909652505060a0810192909252151560c090910152949350505050565b600060208284031215611e4a57600080fd5b813567ffffffffffffffff811115611e6157600080fd5b611e6d84828501611c7d565b949350505050565b602081526000611e886020830184611ab5565b9392505050565b600060208284031215611ea157600080fd5b81356001600160a01b0381168114611e8857600080fd5b602081526000611e8860208301846119ad565b600080600080600060a08688031215611ee357600080fd5b853567ffffffffffffffff80821115611efb57600080fd5b611f0789838a01611c7d565b96506020880135915080821115611f1d57600080fd5b611f2989838a01611c7d565b95506040880135915080821115611f3f57600080fd5b611f4b89838a01611c7d565b94506060880135915080821115611f6157600080fd5b611f6d89838a01611c7d565b93506080880135915080821115611f8357600080fd5b50611f9088828901611c7d565b9150509295509295909350565b600181811c90821680611fb157607f821691505b602082108103611fd157634e487b7160e01b600052602260045260246000fd5b50919050565b60008251611fe9818460208701611989565b9190910192915050565b600080835461200181611f9d565b60018281168015612019576001811461202e5761205d565b60ff198416875282151583028701945061205d565b8760005260208060002060005b858110156120545781548a82015290840190820161203b565b50505082870194505b50929695505050505050565b601f8211156120af57600081815260208120601f850160051c810160208610156120905750805b601f850160051c820191505b81811015610f585782815560010161209c565b505050565b815167ffffffffffffffff8111156120ce576120ce611c67565b6120e2816120dc8454611f9d565b84612069565b602080601f83116001811461211757600084156120ff5750858301515b600019600386901b1c1916600185901b178555610f58565b600085815260208120601f198616915b8281101561214657888601518255948401946001909101908401612127565b50858210156121645787850151600019600388901b60f8161c191681555b5050505050600190811b01905550565b81810361217f575050565b6121898254611f9d565b67ffffffffffffffff8111156121a1576121a1611c67565b6121af816120dc8454611f9d565b6000601f8211600181146121e357600083156121cb5750848201545b600019600385901b1c1916600184901b178455611929565b600085815260209020601f19841690600086815260209020845b8381101561221d57828601548255600195860195909101906020016121fd565b50858310156121645793015460001960f8600387901b161c19169092555050600190811b01905550565b634e487b7160e01b600052601160045260246000fd5b8082018082111561227057612270612247565b92915050565b634e487b7160e01b600052603260045260246000fd5b60006001820161229e5761229e612247565b506001019056fea2646970667358221220de1c2e45cbc943a24baa232d420581ebe3a7c558a8358c2fbdccfaa204dc145464736f6c63430008110033","opcodes":"PUSH1 0x80 PUSH1 0x40 MSTORE CALLVALUE DUP1 ISZERO PUSH2 0x10 JUMPI PUSH1 0x0 DUP1 REVERT JUMPDEST POP PUSH1 0x1 PUSH1 0x0 SSTORE PUSH1 0x2 DUP1 SLOAD PUSH1 0x1 PUSH1 0x1 PUSH1 0xA0 SHL SUB NOT AND CALLER OR SWAP1 SSTORE PUSH2 0x22DB DUP1 PUSH2 0x37 PUSH1 0x0 CODECOPY PUSH1 0x0 RETURN INVALID PUSH1 0x80 PUSH1 0x40 MSTORE CALLVALUE DUP1 ISZERO PUSH2 0x10 JUMPI PUSH1 0x0 DUP1 REVERT JUMPDEST POP PUSH1 0x4 CALLDATASIZE LT PUSH2 0xCE JUMPI PUSH1 0x0 CALLDATALOAD PUSH1 0xE0 SHR DUP1 PUSH4 0x6847A451 GT PUSH2 0x8C JUMPI DUP1 PUSH4 0xB87F6A0A GT PUSH2 0x66 JUMPI DUP1 PUSH4 0xB87F6A0A EQ PUSH2 0x1F4 JUMPI DUP1 PUSH4 0xCE606EE0 EQ PUSH2 0x1FE JUMPI DUP1 PUSH4 0xEB15F380 EQ PUSH2 0x229 JUMPI DUP1 PUSH4 0xFDC15909 EQ PUSH2 0x23C JUMPI PUSH1 0x0 DUP1 REVERT JUMPDEST DUP1 PUSH4 0x6847A451 EQ PUSH2 0x17B JUMPI DUP1 PUSH4 0x70F67CFE EQ PUSH2 0x1B4 JUMPI DUP1 PUSH4 0xA0B67CF1 EQ PUSH2 0x1D4 JUMPI PUSH1 0x0 DUP1 REVERT JUMPDEST DUP1 PUSH3 0xCE8E3E EQ PUSH2 0xD3 JUMPI DUP1 PUSH4 0x6A49FCE EQ PUSH2 0xF1 JUMPI DUP1 PUSH4 0xA4FA331 EQ PUSH2 0x106 JUMPI DUP1 PUSH4 0x17807115 EQ PUSH2 0x12D JUMPI DUP1 PUSH4 0x35A893A1 EQ PUSH2 0x142 JUMPI DUP1 PUSH4 0x41209AF1 EQ PUSH2 0x155 JUMPI JUMPDEST PUSH1 0x0 DUP1 REVERT JUMPDEST PUSH2 0xDB PUSH2 0x24F JUMP JUMPDEST PUSH1 0x40 MLOAD PUSH2 0xE8 SWAP2 SWAP1 PUSH2 0x19D9 JUMP JUMPDEST PUSH1 0x40 MLOAD DUP1 SWAP2 SUB SWAP1 RETURN JUMPDEST PUSH2 0xF9 PUSH2 0x51F JUMP JUMPDEST PUSH1 0x40 MLOAD PUSH2 0xE8 SWAP2 SWAP1 PUSH2 0x1B65 JUMP JUMPDEST PUSH2 0x119 PUSH2 0x114 CALLDATASIZE PUSH1 0x4 PUSH2 0x1BC7 JUMP JUMPDEST PUSH2 0x879 JUMP JUMPDEST PUSH1 0x40 MLOAD PUSH2 0xE8 SWAP9 SWAP8 SWAP7 SWAP6 SWAP5 SWAP4 SWAP3 SWAP2 SWAP1 PUSH2 0x1BE0 JUMP JUMPDEST PUSH2 0x140 PUSH2 0x13B CALLDATASIZE PUSH1 0x4 PUSH2 0x1D0A JUMP JUMPDEST PUSH2 0xB66 JUMP JUMPDEST STOP JUMPDEST PUSH2 0x119 PUSH2 0x150 CALLDATASIZE PUSH1 0x4 PUSH2 0x1BC7 JUMP JUMPDEST PUSH2 0xF60 JUMP JUMPDEST PUSH2 0x168 PUSH2 0x163 CALLDATASIZE PUSH1 0x4 PUSH2 0x1BC7 JUMP JUMPDEST PUSH2 0xF95 JUMP JUMPDEST PUSH1 0x40 MLOAD PUSH2 0xE8 SWAP8 SWAP7 SWAP6 SWAP5 SWAP4 SWAP3 SWAP2 SWAP1 PUSH2 0x1DC9 JUMP JUMPDEST PUSH2 0x1A6 PUSH2 0x189 CALLDATASIZE PUSH1 0x4 PUSH2 0x1E38 JUMP JUMPDEST DUP1 MLOAD PUSH1 0x20 DUP2 DUP4 ADD DUP2 ADD DUP1 MLOAD PUSH1 0x4 DUP3 MSTORE SWAP3 DUP3 ADD SWAP2 SWAP1 SWAP4 ADD KECCAK256 SWAP2 MSTORE SLOAD DUP2 JUMP JUMPDEST PUSH1 0x40 MLOAD SWAP1 DUP2 MSTORE PUSH1 0x20 ADD PUSH2 0xE8 JUMP JUMPDEST PUSH2 0x1C7 PUSH2 0x1C2 CALLDATASIZE PUSH1 0x4 PUSH2 0x1BC7 JUMP JUMPDEST PUSH2 0x120C JUMP JUMPDEST PUSH1 0x40 MLOAD PUSH2 0xE8 SWAP2 SWAP1 PUSH2 0x1E75 JUMP JUMPDEST PUSH2 0x1E7 PUSH2 0x1E2 CALLDATASIZE PUSH1 0x4 PUSH2 0x1E8F JUMP JUMPDEST PUSH2 0x1579 JUMP JUMPDEST PUSH1 0x40 MLOAD PUSH2 0xE8 SWAP2 SWAP1 PUSH2 0x1EB8 JUMP JUMPDEST PUSH1 0x1 SLOAD PUSH2 0x1A6 SWAP1 DUP2 JUMP JUMPDEST PUSH1 0x2 SLOAD PUSH2 0x211 SWAP1 PUSH1 0x1 PUSH1 0x1 PUSH1 0xA0 SHL SUB AND DUP2 JUMP JUMPDEST PUSH1 0x40 MLOAD PUSH1 0x1 PUSH1 0x1 PUSH1 0xA0 SHL SUB SWAP1 SWAP2 AND DUP2 MSTORE PUSH1 0x20 ADD PUSH2 0xE8 JUMP JUMPDEST PUSH2 0x168 PUSH2 0x237 CALLDATASIZE PUSH1 0x4 PUSH2 0x1E38 JUMP JUMPDEST PUSH2 0x1613 JUMP JUMPDEST PUSH2 0x140 PUSH2 0x24A CALLDATASIZE PUSH1 0x4 PUSH2 0x1ECB JUMP JUMPDEST PUSH2 0x1639 JUMP JUMPDEST PUSH1 0x60 PUSH1 0x8 DUP1 SLOAD DUP1 PUSH1 0x20 MUL PUSH1 0x20 ADD PUSH1 0x40 MLOAD SWAP1 DUP2 ADD PUSH1 0x40 MSTORE DUP1 SWAP3 SWAP2 SWAP1 DUP2 DUP2 MSTORE PUSH1 0x20 ADD PUSH1 0x0 SWAP1 JUMPDEST DUP3 DUP3 LT ISZERO PUSH2 0x516 JUMPI DUP4 DUP3 SWAP1 PUSH1 0x0 MSTORE PUSH1 0x20 PUSH1 0x0 KECCAK256 SWAP1 PUSH1 0x7 MUL ADD PUSH1 0x40 MLOAD DUP1 PUSH1 0xE0 ADD PUSH1 0x40 MSTORE SWAP1 DUP2 PUSH1 0x0 DUP3 ADD DUP1 SLOAD PUSH2 0x2A6 SWAP1 PUSH2 0x1F9D JUMP JUMPDEST DUP1 PUSH1 0x1F ADD PUSH1 0x20 DUP1 SWAP2 DIV MUL PUSH1 0x20 ADD PUSH1 0x40 MLOAD SWAP1 DUP2 ADD PUSH1 0x40 MSTORE DUP1 SWAP3 SWAP2 SWAP1 DUP2 DUP2 MSTORE PUSH1 0x20 ADD DUP3 DUP1 SLOAD PUSH2 0x2D2 SWAP1 PUSH2 0x1F9D JUMP JUMPDEST DUP1 ISZERO PUSH2 0x31F JUMPI DUP1 PUSH1 0x1F LT PUSH2 0x2F4 JUMPI PUSH2 0x100 DUP1 DUP4 SLOAD DIV MUL DUP4 MSTORE SWAP2 PUSH1 0x20 ADD SWAP2 PUSH2 0x31F JUMP JUMPDEST DUP3 ADD SWAP2 SWAP1 PUSH1 0x0 MSTORE PUSH1 0x20 PUSH1 0x0 KECCAK256 SWAP1 JUMPDEST DUP2 SLOAD DUP2 MSTORE SWAP1 PUSH1 0x1 ADD SWAP1 PUSH1 0x20 ADD DUP1 DUP4 GT PUSH2 0x302 JUMPI DUP3 SWAP1 SUB PUSH1 0x1F AND DUP3 ADD SWAP2 JUMPDEST POP POP POP POP POP DUP2 MSTORE PUSH1 0x20 ADD PUSH1 0x1 DUP3 ADD DUP1 SLOAD PUSH2 0x338 SWAP1 PUSH2 0x1F9D JUMP JUMPDEST DUP1 PUSH1 0x1F ADD PUSH1 0x20 DUP1 SWAP2 DIV MUL PUSH1 0x20 ADD PUSH1 0x40 MLOAD SWAP1 DUP2 ADD PUSH1 0x40 MSTORE DUP1 SWAP3 SWAP2 SWAP1 DUP2 DUP2 MSTORE PUSH1 0x20 ADD DUP3 DUP1 SLOAD PUSH2 0x364 SWAP1 PUSH2 0x1F9D JUMP JUMPDEST DUP1 ISZERO PUSH2 0x3B1 JUMPI DUP1 PUSH1 0x1F LT PUSH2 0x386 JUMPI PUSH2 0x100 DUP1 DUP4 SLOAD DIV MUL DUP4 MSTORE SWAP2 PUSH1 0x20 ADD SWAP2 PUSH2 0x3B1 JUMP JUMPDEST DUP3 ADD SWAP2 SWAP1 PUSH1 0x0 MSTORE PUSH1 0x20 PUSH1 0x0 KECCAK256 SWAP1 JUMPDEST DUP2 SLOAD DUP2 MSTORE SWAP1 PUSH1 0x1 ADD SWAP1 PUSH1 0x20 ADD DUP1 DUP4 GT PUSH2 0x394 JUMPI DUP3 SWAP1 SUB PUSH1 0x1F AND DUP3 ADD SWAP2 JUMPDEST POP POP POP POP POP DUP2 MSTORE PUSH1 0x20 ADD PUSH1 0x2 DUP3 ADD DUP1 SLOAD PUSH2 0x3CA SWAP1 PUSH2 0x1F9D JUMP JUMPDEST DUP1 PUSH1 0x1F ADD PUSH1 0x20 DUP1 SWAP2 DIV MUL PUSH1 0x20 ADD PUSH1 0x40 MLOAD SWAP1 DUP2 ADD PUSH1 0x40 MSTORE DUP1 SWAP3 SWAP2 SWAP1 DUP2 DUP2 MSTORE PUSH1 0x20 ADD DUP3 DUP1 SLOAD PUSH2 0x3F6 SWAP1 PUSH2 0x1F9D JUMP JUMPDEST DUP1 ISZERO PUSH2 0x443 JUMPI DUP1 PUSH1 0x1F LT PUSH2 0x418 JUMPI PUSH2 0x100 DUP1 DUP4 SLOAD DIV MUL DUP4 MSTORE SWAP2 PUSH1 0x20 ADD SWAP2 PUSH2 0x443 JUMP JUMPDEST DUP3 ADD SWAP2 SWAP1 PUSH1 0x0 MSTORE PUSH1 0x20 PUSH1 0x0 KECCAK256 SWAP1 JUMPDEST DUP2 SLOAD DUP2 MSTORE SWAP1 PUSH1 0x1 ADD SWAP1 PUSH1 0x20 ADD DUP1 DUP4 GT PUSH2 0x426 JUMPI DUP3 SWAP1 SUB PUSH1 0x1F AND DUP3 ADD SWAP2 JUMPDEST POP POP POP POP POP DUP2 MSTORE PUSH1 0x20 ADD PUSH1 0x3 DUP3 ADD DUP1 SLOAD PUSH2 0x45C SWAP1 PUSH2 0x1F9D JUMP JUMPDEST DUP1 PUSH1 0x1F ADD PUSH1 0x20 DUP1 SWAP2 DIV MUL PUSH1 0x20 ADD PUSH1 0x40 MLOAD SWAP1 DUP2 ADD PUSH1 0x40 MSTORE DUP1 SWAP3 SWAP2 SWAP1 DUP2 DUP2 MSTORE PUSH1 0x20 ADD DUP3 DUP1 SLOAD PUSH2 0x488 SWAP1 PUSH2 0x1F9D JUMP JUMPDEST DUP1 ISZERO PUSH2 0x4D5 JUMPI DUP1 PUSH1 0x1F LT PUSH2 0x4AA JUMPI PUSH2 0x100 DUP1 DUP4 SLOAD DIV MUL DUP4 MSTORE SWAP2 PUSH1 0x20 ADD SWAP2 PUSH2 0x4D5 JUMP JUMPDEST DUP3 ADD SWAP2 SWAP1 PUSH1 0x0 MSTORE PUSH1 0x20 PUSH1 0x0 KECCAK256 SWAP1 JUMPDEST DUP2 SLOAD DUP2 MSTORE SWAP1 PUSH1 0x1 ADD SWAP1 PUSH1 0x20 ADD DUP1 DUP4 GT PUSH2 0x4B8 JUMPI DUP3 SWAP1 SUB PUSH1 0x1F AND DUP3 ADD SWAP2 JUMPDEST POP POP POP SWAP2 DUP4 MSTORE POP POP PUSH1 0x4 DUP3 ADD SLOAD PUSH1 0x20 DUP1 DUP4 ADD SWAP2 SWAP1 SWAP2 MSTORE PUSH1 0x5 DUP4 ADD SLOAD PUSH1 0x40 DUP4 ADD MSTORE PUSH1 0x6 SWAP1 SWAP3 ADD SLOAD PUSH1 0xFF AND ISZERO ISZERO PUSH1 0x60 SWAP1 SWAP2 ADD MSTORE SWAP1 DUP3 MSTORE PUSH1 0x1 SWAP3 SWAP1 SWAP3 ADD SWAP2 ADD PUSH2 0x273 JUMP JUMPDEST POP POP POP POP SWAP1 POP SWAP1 JUMP JUMPDEST PUSH1 0x60 PUSH1 0x5 DUP1 SLOAD DUP1 PUSH1 0x20 MUL PUSH1 0x20 ADD PUSH1 0x40 MLOAD SWAP1 DUP2 ADD PUSH1 0x40 MSTORE DUP1 SWAP3 SWAP2 SWAP1 DUP2 DUP2 MSTORE PUSH1 0x20 ADD PUSH1 0x0 SWAP1 JUMPDEST DUP3 DUP3 LT ISZERO PUSH2 0x516 JUMPI DUP4 DUP3 SWAP1 PUSH1 0x0 MSTORE PUSH1 0x20 PUSH1 0x0 KECCAK256 SWAP1 PUSH1 0x8 MUL ADD PUSH1 0x40 MLOAD DUP1 PUSH2 0x100 ADD PUSH1 0x40 MSTORE SWAP1 DUP2 PUSH1 0x0 DUP3 ADD SLOAD DUP2 MSTORE PUSH1 0x20 ADD PUSH1 0x1 DUP3 ADD DUP1 SLOAD PUSH2 0x581 SWAP1 PUSH2 0x1F9D JUMP JUMPDEST DUP1 PUSH1 0x1F ADD PUSH1 0x20 DUP1 SWAP2 DIV MUL PUSH1 0x20 ADD PUSH1 0x40 MLOAD SWAP1 DUP2 ADD PUSH1 0x40 MSTORE DUP1 SWAP3 SWAP2 SWAP1 DUP2 DUP2 MSTORE PUSH1 0x20 ADD DUP3 DUP1 SLOAD PUSH2 0x5AD SWAP1 PUSH2 0x1F9D JUMP JUMPDEST DUP1 ISZERO PUSH2 0x5FA JUMPI DUP1 PUSH1 0x1F LT PUSH2 0x5CF JUMPI PUSH2 0x100 DUP1 DUP4 SLOAD DIV MUL DUP4 MSTORE SWAP2 PUSH1 0x20 ADD SWAP2 PUSH2 0x5FA JUMP JUMPDEST DUP3 ADD SWAP2 SWAP1 PUSH1 0x0 MSTORE PUSH1 0x20 PUSH1 0x0 KECCAK256 SWAP1 JUMPDEST DUP2 SLOAD DUP2 MSTORE SWAP1 PUSH1 0x1 ADD SWAP1 PUSH1 0x20 ADD DUP1 DUP4 GT PUSH2 0x5DD JUMPI DUP3 SWAP1 SUB PUSH1 0x1F AND DUP3 ADD SWAP2 JUMPDEST POP POP POP POP POP DUP2 MSTORE PUSH1 0x20 ADD PUSH1 0x2 DUP3 ADD DUP1 SLOAD PUSH2 0x613 SWAP1 PUSH2 0x1F9D JUMP JUMPDEST DUP1 PUSH1 0x1F ADD PUSH1 0x20 DUP1 SWAP2 DIV MUL PUSH1 0x20 ADD PUSH1 0x40 MLOAD SWAP1 DUP2 ADD PUSH1 0x40 MSTORE DUP1 SWAP3 SWAP2 SWAP1 DUP2 DUP2 MSTORE PUSH1 0x20 ADD DUP3 DUP1 SLOAD PUSH2 0x63F SWAP1 PUSH2 0x1F9D JUMP JUMPDEST DUP1 ISZERO PUSH2 0x68C JUMPI DUP1 PUSH1 0x1F LT PUSH2 0x661 JUMPI PUSH2 0x100 DUP1 DUP4 SLOAD DIV MUL DUP4 MSTORE SWAP2 PUSH1 0x20 ADD SWAP2 PUSH2 0x68C JUMP JUMPDEST DUP3 ADD SWAP2 SWAP1 PUSH1 0x0 MSTORE PUSH1 0x20 PUSH1 0x0 KECCAK256 SWAP1 JUMPDEST DUP2 SLOAD DUP2 MSTORE SWAP1 PUSH1 0x1 ADD SWAP1 PUSH1 0x20 ADD DUP1 DUP4 GT PUSH2 0x66F JUMPI DUP3 SWAP1 SUB PUSH1 0x1F AND DUP3 ADD SWAP2 JUMPDEST POP POP POP POP POP DUP2 MSTORE PUSH1 0x20 ADD PUSH1 0x3 DUP3 ADD DUP1 SLOAD PUSH2 0x6A5 SWAP1 PUSH2 0x1F9D JUMP JUMPDEST DUP1 PUSH1 0x1F ADD PUSH1 0x20 DUP1 SWAP2 DIV MUL PUSH1 0x20 ADD PUSH1 0x40 MLOAD SWAP1 DUP2 ADD PUSH1 0x40 MSTORE DUP1 SWAP3 SWAP2 SWAP1 DUP2 DUP2 MSTORE PUSH1 0x20 ADD DUP3 DUP1 SLOAD PUSH2 0x6D1 SWAP1 PUSH2 0x1F9D JUMP JUMPDEST DUP1 ISZERO PUSH2 0x71E JUMPI DUP1 PUSH1 0x1F LT PUSH2 0x6F3 JUMPI PUSH2 0x100 DUP1 DUP4 SLOAD DIV MUL DUP4 MSTORE SWAP2 PUSH1 0x20 ADD SWAP2 PUSH2 0x71E JUMP JUMPDEST DUP3 ADD SWAP2 SWAP1 PUSH1 0x0 MSTORE PUSH1 0x20 PUSH1 0x0 KECCAK256 SWAP1 JUMPDEST DUP2 SLOAD DUP2 MSTORE SWAP1 PUSH1 0x1 ADD SWAP1 PUSH1 0x20 ADD DUP1 DUP4 GT PUSH2 0x701 JUMPI DUP3 SWAP1 SUB PUSH1 0x1F AND DUP3 ADD SWAP2 JUMPDEST POP POP POP POP POP DUP2 MSTORE PUSH1 0x20 ADD PUSH1 0x4 DUP3 ADD DUP1 SLOAD PUSH2 0x737 SWAP1 PUSH2 0x1F9D JUMP JUMPDEST DUP1 PUSH1 0x1F ADD PUSH1 0x20 DUP1 SWAP2 DIV MUL PUSH1 0x20 ADD PUSH1 0x40 MLOAD SWAP1 DUP2 ADD PUSH1 0x40 MSTORE DUP1 SWAP3 SWAP2 SWAP1 DUP2 DUP2 MSTORE PUSH1 0x20 ADD DUP3 DUP1 SLOAD PUSH2 0x763 SWAP1 PUSH2 0x1F9D JUMP JUMPDEST DUP1 ISZERO PUSH2 0x7B0 JUMPI DUP1 PUSH1 0x1F LT PUSH2 0x785 JUMPI PUSH2 0x100 DUP1 DUP4 SLOAD DIV MUL DUP4 MSTORE SWAP2 PUSH1 0x20 ADD SWAP2 PUSH2 0x7B0 JUMP JUMPDEST DUP3 ADD SWAP2 SWAP1 PUSH1 0x0 MSTORE PUSH1 0x20 PUSH1 0x0 KECCAK256 SWAP1 JUMPDEST DUP2 SLOAD DUP2 MSTORE SWAP1 PUSH1 0x1 ADD SWAP1 PUSH1 0x20 ADD DUP1 DUP4 GT PUSH2 0x793 JUMPI DUP3 SWAP1 SUB PUSH1 0x1F AND DUP3 ADD SWAP2 JUMPDEST POP POP POP POP POP DUP2 MSTORE PUSH1 0x20 ADD PUSH1 0x5 DUP3 ADD DUP1 SLOAD PUSH2 0x7C9 SWAP1 PUSH2 0x1F9D JUMP JUMPDEST DUP1 PUSH1 0x1F ADD PUSH1 0x20 DUP1 SWAP2 DIV MUL PUSH1 0x20 ADD PUSH1 0x40 MLOAD SWAP1 DUP2 ADD PUSH1 0x40 MSTORE DUP1 SWAP3 SWAP2 SWAP1 DUP2 DUP2 MSTORE PUSH1 0x20 ADD DUP3 DUP1 SLOAD PUSH2 0x7F5 SWAP1 PUSH2 0x1F9D JUMP JUMPDEST DUP1 ISZERO PUSH2 0x842 JUMPI DUP1 PUSH1 0x1F LT PUSH2 0x817 JUMPI PUSH2 0x100 DUP1 DUP4 SLOAD DIV MUL DUP4 MSTORE SWAP2 PUSH1 0x20 ADD SWAP2 PUSH2 0x842 JUMP JUMPDEST DUP3 ADD SWAP2 SWAP1 PUSH1 0x0 MSTORE PUSH1 0x20 PUSH1 0x0 KECCAK256 SWAP1 JUMPDEST DUP2 SLOAD DUP2 MSTORE SWAP1 PUSH1 0x1 ADD SWAP1 PUSH1 0x20 ADD DUP1 DUP4 GT PUSH2 0x825 JUMPI DUP3 SWAP1 SUB PUSH1 0x1F AND DUP3 ADD SWAP2 JUMPDEST POP POP POP SWAP2 DUP4 MSTORE POP POP PUSH1 0x6 DUP3 ADD SLOAD PUSH1 0x20 DUP1 DUP4 ADD SWAP2 SWAP1 SWAP2 MSTORE PUSH1 0x7 SWAP1 SWAP3 ADD SLOAD PUSH1 0xFF AND ISZERO ISZERO PUSH1 0x40 SWAP1 SWAP2 ADD MSTORE SWAP1 DUP3 MSTORE PUSH1 0x1 SWAP3 SWAP1 SWAP3 ADD SWAP2 ADD PUSH2 0x543 JUMP JUMPDEST PUSH1 0x3 PUSH1 0x20 MSTORE PUSH1 0x0 SWAP1 DUP2 MSTORE PUSH1 0x40 SWAP1 KECCAK256 DUP1 SLOAD PUSH1 0x1 DUP3 ADD DUP1 SLOAD SWAP2 SWAP3 SWAP2 PUSH2 0x89B SWAP1 PUSH2 0x1F9D JUMP JUMPDEST DUP1 PUSH1 0x1F ADD PUSH1 0x20 DUP1 SWAP2 DIV MUL PUSH1 0x20 ADD PUSH1 0x40 MLOAD SWAP1 DUP2 ADD PUSH1 0x40 MSTORE DUP1 SWAP3 SWAP2 SWAP1 DUP2 DUP2 MSTORE PUSH1 0x20 ADD DUP3 DUP1 SLOAD PUSH2 0x8C7 SWAP1 PUSH2 0x1F9D JUMP JUMPDEST DUP1 ISZERO PUSH2 0x914 JUMPI DUP1 PUSH1 0x1F LT PUSH2 0x8E9 JUMPI PUSH2 0x100 DUP1 DUP4 SLOAD DIV MUL DUP4 MSTORE SWAP2 PUSH1 0x20 ADD SWAP2 PUSH2 0x914 JUMP JUMPDEST DUP3 ADD SWAP2 SWAP1 PUSH1 0x0 MSTORE PUSH1 0x20 PUSH1 0x0 KECCAK256 SWAP1 JUMPDEST DUP2 SLOAD DUP2 MSTORE SWAP1 PUSH1 0x1 ADD SWAP1 PUSH1 0x20 ADD DUP1 DUP4 GT PUSH2 0x8F7 JUMPI DUP3 SWAP1 SUB PUSH1 0x1F AND DUP3 ADD SWAP2 JUMPDEST POP POP POP POP POP SWAP1 DUP1 PUSH1 0x2 ADD DUP1 SLOAD PUSH2 0x929 SWAP1 PUSH2 0x1F9D JUMP JUMPDEST DUP1 PUSH1 0x1F ADD PUSH1 0x20 DUP1 SWAP2 DIV MUL PUSH1 0x20 ADD PUSH1 0x40 MLOAD SWAP1 DUP2 ADD PUSH1 0x40 MSTORE DUP1 SWAP3 SWAP2 SWAP1 DUP2 DUP2 MSTORE PUSH1 0x20 ADD DUP3 DUP1 SLOAD PUSH2 0x955 SWAP1 PUSH2 0x1F9D JUMP JUMPDEST DUP1 ISZERO PUSH2 0x9A2 JUMPI DUP1 PUSH1 0x1F LT PUSH2 0x977 JUMPI PUSH2 0x100 DUP1 DUP4 SLOAD DIV MUL DUP4 MSTORE SWAP2 PUSH1 0x20 ADD SWAP2 PUSH2 0x9A2 JUMP JUMPDEST DUP3 ADD SWAP2 SWAP1 PUSH1 0x0 MSTORE PUSH1 0x20 PUSH1 0x0 KECCAK256 SWAP1 JUMPDEST DUP2 SLOAD DUP2 MSTORE SWAP1 PUSH1 0x1 ADD SWAP1 PUSH1 0x20 ADD DUP1 DUP4 GT PUSH2 0x985 JUMPI DUP3 SWAP1 SUB PUSH1 0x1F AND DUP3 ADD SWAP2 JUMPDEST POP POP POP POP POP SWAP1 DUP1 PUSH1 0x3 ADD DUP1 SLOAD PUSH2 0x9B7 SWAP1 PUSH2 0x1F9D JUMP JUMPDEST DUP1 PUSH1 0x1F ADD PUSH1 0x20 DUP1 SWAP2 DIV MUL PUSH1 0x20 ADD PUSH1 0x40 MLOAD SWAP1 DUP2 ADD PUSH1 0x40 MSTORE DUP1 SWAP3 SWAP2 SWAP1 DUP2 DUP2 MSTORE PUSH1 0x20 ADD DUP3 DUP1 SLOAD PUSH2 0x9E3 SWAP1 PUSH2 0x1F9D JUMP JUMPDEST DUP1 ISZERO PUSH2 0xA30 JUMPI DUP1 PUSH1 0x1F LT PUSH2 0xA05 JUMPI PUSH2 0x100 DUP1 DUP4 SLOAD DIV MUL DUP4 MSTORE SWAP2 PUSH1 0x20 ADD SWAP2 PUSH2 0xA30 JUMP JUMPDEST DUP3 ADD SWAP2 SWAP1 PUSH1 0x0 MSTORE PUSH1 0x20 PUSH1 0x0 KECCAK256 SWAP1 JUMPDEST DUP2 SLOAD DUP2 MSTORE SWAP1 PUSH1 0x1 ADD SWAP1 PUSH1 0x20 ADD DUP1 DUP4 GT PUSH2 0xA13 JUMPI DUP3 SWAP1 SUB PUSH1 0x1F AND DUP3 ADD SWAP2 JUMPDEST POP POP POP POP POP SWAP1 DUP1 PUSH1 0x4 ADD DUP1 SLOAD PUSH2 0xA45 SWAP1 PUSH2 0x1F9D JUMP JUMPDEST DUP1 PUSH1 0x1F ADD PUSH1 0x20 DUP1 SWAP2 DIV MUL PUSH1 0x20 ADD PUSH1 0x40 MLOAD SWAP1 DUP2 ADD PUSH1 0x40 MSTORE DUP1 SWAP3 SWAP2 SWAP1 DUP2 DUP2 MSTORE PUSH1 0x20 ADD DUP3 DUP1 SLOAD PUSH2 0xA71 SWAP1 PUSH2 0x1F9D JUMP JUMPDEST DUP1 ISZERO PUSH2 0xABE JUMPI DUP1 PUSH1 0x1F LT PUSH2 0xA93 JUMPI PUSH2 0x100 DUP1 DUP4 SLOAD DIV MUL DUP4 MSTORE SWAP2 PUSH1 0x20 ADD SWAP2 PUSH2 0xABE JUMP JUMPDEST DUP3 ADD SWAP2 SWAP1 PUSH1 0x0 MSTORE PUSH1 0x20 PUSH1 0x0 KECCAK256 SWAP1 JUMPDEST DUP2 SLOAD DUP2 MSTORE SWAP1 PUSH1 0x1 ADD SWAP1 PUSH1 0x20 ADD DUP1 DUP4 GT PUSH2 0xAA1 JUMPI DUP3 SWAP1 SUB PUSH1 0x1F AND DUP3 ADD SWAP2 JUMPDEST POP POP POP POP POP SWAP1 DUP1 PUSH1 0x5 ADD DUP1 SLOAD PUSH2 0xAD3 SWAP1 PUSH2 0x1F9D JUMP JUMPDEST DUP1 PUSH1 0x1F ADD PUSH1 0x20 DUP1 SWAP2 DIV MUL PUSH1 0x20 ADD PUSH1 0x40 MLOAD SWAP1 DUP2 ADD PUSH1 0x40 MSTORE DUP1 SWAP3 SWAP2 SWAP1 DUP2 DUP2 MSTORE PUSH1 0x20 ADD DUP3 DUP1 SLOAD PUSH2 0xAFF SWAP1 PUSH2 0x1F9D JUMP JUMPDEST DUP1 ISZERO PUSH2 0xB4C JUMPI DUP1 PUSH1 0x1F LT PUSH2 0xB21 JUMPI PUSH2 0x100 DUP1 DUP4 SLOAD DIV MUL DUP4 MSTORE SWAP2 PUSH1 0x20 ADD SWAP2 PUSH2 0xB4C JUMP JUMPDEST DUP3 ADD SWAP2 SWAP1 PUSH1 0x0 MSTORE PUSH1 0x20 PUSH1 0x0 KECCAK256 SWAP1 JUMPDEST DUP2 SLOAD DUP2 MSTORE SWAP1 PUSH1 0x1 ADD SWAP1 PUSH1 0x20 ADD DUP1 DUP4 GT PUSH2 0xB2F JUMPI DUP3 SWAP1 SUB PUSH1 0x1F AND DUP3 ADD SWAP2 JUMPDEST POP POP POP POP PUSH1 0x6 DUP4 ADD SLOAD PUSH1 0x7 SWAP1 SWAP4 ADD SLOAD SWAP2 SWAP3 SWAP2 PUSH1 0xFF AND SWAP1 POP DUP9 JUMP JUMPDEST PUSH2 0xB6E PUSH2 0x1930 JUMP JUMPDEST PUSH1 0x0 DUP7 DUP2 MSTORE PUSH1 0x3 PUSH1 0x20 MSTORE PUSH1 0x40 SWAP1 KECCAK256 PUSH1 0x7 ADD SLOAD PUSH1 0xFF AND PUSH2 0xBD4 JUMPI PUSH1 0x40 MLOAD PUSH3 0x461BCD PUSH1 0xE5 SHL DUP2 MSTORE PUSH1 0x20 PUSH1 0x4 DUP3 ADD MSTORE PUSH1 0x19 PUSH1 0x24 DUP3 ADD MSTORE PUSH32 0x4E6F2063616E6469646174652077697468207468697320496400000000000000 PUSH1 0x44 DUP3 ADD MSTORE PUSH1 0x64 ADD JUMPDEST PUSH1 0x40 MLOAD DUP1 SWAP2 SUB SWAP1 REVERT JUMPDEST PUSH1 0x6 DUP6 PUSH1 0x40 MLOAD PUSH2 0xBE4 SWAP2 SWAP1 PUSH2 0x1FD7 JUMP JUMPDEST SWAP1 DUP2 MSTORE PUSH1 0x40 MLOAD SWAP1 DUP2 SWAP1 SUB PUSH1 0x20 ADD SWAP1 KECCAK256 PUSH1 0x6 ADD SLOAD PUSH1 0xFF AND ISZERO PUSH2 0xC3C JUMPI PUSH1 0x40 MLOAD PUSH3 0x461BCD PUSH1 0xE5 SHL DUP2 MSTORE PUSH1 0x20 PUSH1 0x4 DUP3 ADD MSTORE PUSH1 0x12 PUSH1 0x24 DUP3 ADD MSTORE PUSH18 0x596F7520616C726561647920766F74656421 PUSH1 0x70 SHL PUSH1 0x44 DUP3 ADD MSTORE PUSH1 0x64 ADD PUSH2 0xBCB JUMP JUMPDEST CALLER PUSH1 0x0 SWAP1 DUP2 MSTORE PUSH1 0x7 PUSH1 0x20 MSTORE PUSH1 0x40 SWAP1 DUP2 SWAP1 KECCAK256 SWAP1 MLOAD PUSH1 0x6 SWAP2 PUSH2 0xC5B SWAP2 PUSH2 0x1FF3 JUMP JUMPDEST SWAP1 DUP2 MSTORE PUSH1 0x40 MLOAD SWAP1 DUP2 SWAP1 SUB PUSH1 0x20 ADD SWAP1 KECCAK256 PUSH1 0x6 ADD SLOAD PUSH1 0xFF AND ISZERO PUSH2 0xCE4 JUMPI PUSH1 0x40 MLOAD PUSH3 0x461BCD PUSH1 0xE5 SHL DUP2 MSTORE PUSH1 0x20 PUSH1 0x4 DUP3 ADD MSTORE PUSH1 0x3E PUSH1 0x24 DUP3 ADD MSTORE PUSH32 0x546869732077616C6C6574206164647265737320697320616C7265616479206C PUSH1 0x44 DUP3 ADD MSTORE PUSH32 0x696E6B656420746F20612043494E20746861742068617320766F746564210000 PUSH1 0x64 DUP3 ADD MSTORE PUSH1 0x84 ADD PUSH2 0xBCB JUMP JUMPDEST PUSH1 0x40 MLOAD DUP1 PUSH1 0xE0 ADD PUSH1 0x40 MSTORE DUP1 DUP7 DUP2 MSTORE PUSH1 0x20 ADD DUP6 DUP2 MSTORE PUSH1 0x20 ADD DUP5 DUP2 MSTORE PUSH1 0x20 ADD DUP4 DUP2 MSTORE PUSH1 0x20 ADD DUP3 DUP2 MSTORE PUSH1 0x20 ADD DUP8 DUP2 MSTORE PUSH1 0x20 ADD PUSH1 0x1 ISZERO ISZERO DUP2 MSTORE POP PUSH1 0x6 DUP7 PUSH1 0x40 MLOAD PUSH2 0xD2A SWAP2 SWAP1 PUSH2 0x1FD7 JUMP JUMPDEST SWAP1 DUP2 MSTORE PUSH1 0x40 MLOAD SWAP1 DUP2 SWAP1 SUB PUSH1 0x20 ADD SWAP1 KECCAK256 DUP2 MLOAD DUP2 SWAP1 PUSH2 0xD47 SWAP1 DUP3 PUSH2 0x20B4 JUMP JUMPDEST POP PUSH1 0x20 DUP3 ADD MLOAD PUSH1 0x1 DUP3 ADD SWAP1 PUSH2 0xD5C SWAP1 DUP3 PUSH2 0x20B4 JUMP JUMPDEST POP PUSH1 0x40 DUP3 ADD MLOAD PUSH1 0x2 DUP3 ADD SWAP1 PUSH2 0xD71 SWAP1 DUP3 PUSH2 0x20B4 JUMP JUMPDEST POP PUSH1 0x60 DUP3 ADD MLOAD PUSH1 0x3 DUP3 ADD SWAP1 PUSH2 0xD86 SWAP1 DUP3 PUSH2 0x20B4 JUMP JUMPDEST POP PUSH1 0x80 DUP3 ADD MLOAD PUSH1 0x4 DUP3 ADD SSTORE PUSH1 0xA0 DUP3 ADD MLOAD PUSH1 0x5 DUP3 ADD SSTORE PUSH1 0xC0 SWAP1 SWAP2 ADD MLOAD PUSH1 0x6 SWAP2 DUP3 ADD DUP1 SLOAD PUSH1 0xFF NOT AND SWAP2 ISZERO ISZERO SWAP2 SWAP1 SWAP2 OR SWAP1 SSTORE PUSH1 0x40 MLOAD PUSH1 0x8 SWAP2 SWAP1 PUSH2 0xDC7 SWAP1 DUP9 SWAP1 PUSH2 0x1FD7 JUMP JUMPDEST SWAP1 DUP2 MSTORE PUSH1 0x40 MLOAD PUSH1 0x20 SWAP2 DUP2 SWAP1 SUB DUP3 ADD SWAP1 KECCAK256 DUP3 SLOAD PUSH1 0x1 DUP2 ADD DUP5 SSTORE PUSH1 0x0 SWAP4 DUP5 MSTORE SWAP2 SWAP1 SWAP3 KECCAK256 PUSH1 0x7 SWAP1 SWAP2 MUL ADD DUP1 PUSH2 0xDF9 DUP4 DUP3 PUSH2 0x2174 JUMP JUMPDEST POP PUSH1 0x1 DUP2 DUP2 ADD SWAP1 PUSH2 0xE0C SWAP1 DUP5 ADD DUP3 PUSH2 0x2174 JUMP JUMPDEST POP PUSH1 0x2 DUP2 DUP2 ADD SWAP1 PUSH2 0xE1F SWAP1 DUP5 ADD DUP3 PUSH2 0x2174 JUMP JUMPDEST POP PUSH1 0x3 DUP2 DUP2 ADD SWAP1 PUSH2 0xE32 SWAP1 DUP5 ADD DUP3 PUSH2 0x2174 JUMP JUMPDEST POP PUSH1 0x4 DUP3 DUP2 ADD SLOAD SWAP1 DUP3 ADD SSTORE PUSH1 0x5 DUP1 DUP4 ADD SLOAD SWAP1 DUP3 ADD SSTORE PUSH1 0x6 SWAP2 DUP3 ADD SLOAD SWAP1 DUP3 ADD DUP1 SLOAD PUSH1 0xFF NOT AND PUSH1 0xFF SWAP1 SWAP3 AND ISZERO ISZERO SWAP2 SWAP1 SWAP2 OR SWAP1 SSTORE PUSH1 0x0 DUP8 DUP2 MSTORE PUSH1 0x3 PUSH1 0x20 MSTORE PUSH1 0x40 SWAP1 KECCAK256 ADD SLOAD PUSH2 0xE7E SWAP1 PUSH1 0x1 PUSH2 0x225D JUMP JUMPDEST PUSH1 0x0 DUP8 DUP2 MSTORE PUSH1 0x3 PUSH1 0x20 SWAP1 DUP2 MSTORE PUSH1 0x40 DUP1 DUP4 KECCAK256 PUSH1 0x6 ADD SWAP4 SWAP1 SWAP4 SSTORE CALLER DUP3 MSTORE PUSH1 0x7 SWAP1 MSTORE KECCAK256 PUSH2 0xEA8 DUP7 DUP3 PUSH2 0x20B4 JUMP JUMPDEST POP PUSH1 0x0 JUMPDEST PUSH1 0x5 SLOAD DUP2 LT ISZERO PUSH2 0xF4D JUMPI DUP7 PUSH1 0x5 DUP3 DUP2 SLOAD DUP2 LT PUSH2 0xECA JUMPI PUSH2 0xECA PUSH2 0x2276 JUMP JUMPDEST SWAP1 PUSH1 0x0 MSTORE PUSH1 0x20 PUSH1 0x0 KECCAK256 SWAP1 PUSH1 0x8 MUL ADD PUSH1 0x0 ADD SLOAD SUB PUSH2 0xF3B JUMPI PUSH1 0x5 DUP2 DUP2 SLOAD DUP2 LT PUSH2 0xEF4 JUMPI PUSH2 0xEF4 PUSH2 0x2276 JUMP JUMPDEST SWAP1 PUSH1 0x0 MSTORE PUSH1 0x20 PUSH1 0x0 KECCAK256 SWAP1 PUSH1 0x8 MUL ADD PUSH1 0x6 ADD SLOAD PUSH1 0x1 PUSH2 0xF12 SWAP2 SWAP1 PUSH2 0x225D JUMP JUMPDEST PUSH1 0x5 DUP3 DUP2 SLOAD DUP2 LT PUSH2 0xF25 JUMPI PUSH2 0xF25 PUSH2 0x2276 JUMP JUMPDEST SWAP1 PUSH1 0x0 MSTORE PUSH1 0x20 PUSH1 0x0 KECCAK256 SWAP1 PUSH1 0x8 MUL ADD PUSH1 0x6 ADD DUP2 SWAP1 SSTORE POP JUMPDEST DUP1 PUSH2 0xF45 DUP2 PUSH2 0x228C JUMP JUMPDEST SWAP2 POP POP PUSH2 0xEAC JUMP JUMPDEST POP PUSH2 0xF58 PUSH1 0x1 PUSH1 0x0 SSTORE JUMP JUMPDEST POP POP POP POP POP POP JUMP JUMPDEST PUSH1 0x5 DUP2 DUP2 SLOAD DUP2 LT PUSH2 0xF70 JUMPI PUSH1 0x0 DUP1 REVERT JUMPDEST PUSH1 0x0 SWAP2 DUP3 MSTORE PUSH1 0x20 SWAP1 SWAP2 KECCAK256 PUSH1 0x8 SWAP1 SWAP2 MUL ADD DUP1 SLOAD PUSH1 0x1 DUP3 ADD DUP1 SLOAD SWAP2 SWAP4 POP SWAP1 PUSH2 0x89B SWAP1 PUSH2 0x1F9D JUMP JUMPDEST PUSH1 0x8 DUP2 DUP2 SLOAD DUP2 LT PUSH2 0xFA5 JUMPI PUSH1 0x0 DUP1 REVERT JUMPDEST SWAP1 PUSH1 0x0 MSTORE PUSH1 0x20 PUSH1 0x0 KECCAK256 SWAP1 PUSH1 0x7 MUL ADD PUSH1 0x0 SWAP2 POP SWAP1 POP DUP1 PUSH1 0x0 ADD DUP1 SLOAD PUSH2 0xFC8 SWAP1 PUSH2 0x1F9D JUMP JUMPDEST DUP1 PUSH1 0x1F ADD PUSH1 0x20 DUP1 SWAP2 DIV MUL PUSH1 0x20 ADD PUSH1 0x40 MLOAD SWAP1 DUP2 ADD PUSH1 0x40 MSTORE DUP1 SWAP3 SWAP2 SWAP1 DUP2 DUP2 MSTORE PUSH1 0x20 ADD DUP3 DUP1 SLOAD PUSH2 0xFF4 SWAP1 PUSH2 0x1F9D JUMP JUMPDEST DUP1 ISZERO PUSH2 0x1041 JUMPI DUP1 PUSH1 0x1F LT PUSH2 0x1016 JUMPI PUSH2 0x100 DUP1 DUP4 SLOAD DIV MUL DUP4 MSTORE SWAP2 PUSH1 0x20 ADD SWAP2 PUSH2 0x1041 JUMP JUMPDEST DUP3 ADD SWAP2 SWAP1 PUSH1 0x0 MSTORE PUSH1 0x20 PUSH1 0x0 KECCAK256 SWAP1 JUMPDEST DUP2 SLOAD DUP2 MSTORE SWAP1 PUSH1 0x1 ADD SWAP1 PUSH1 0x20 ADD DUP1 DUP4 GT PUSH2 0x1024 JUMPI DUP3 SWAP1 SUB PUSH1 0x1F AND DUP3 ADD SWAP2 JUMPDEST POP POP POP POP POP SWAP1 DUP1 PUSH1 0x1 ADD DUP1 SLOAD PUSH2 0x1056 SWAP1 PUSH2 0x1F9D JUMP JUMPDEST DUP1 PUSH1 0x1F ADD PUSH1 0x20 DUP1 SWAP2 DIV MUL PUSH1 0x20 ADD PUSH1 0x40 MLOAD SWAP1 DUP2 ADD PUSH1 0x40 MSTORE DUP1 SWAP3 SWAP2 SWAP1 DUP2 DUP2 MSTORE PUSH1 0x20 ADD DUP3 DUP1 SLOAD PUSH2 0x1082 SWAP1 PUSH2 0x1F9D JUMP JUMPDEST DUP1 ISZERO PUSH2 0x10CF JUMPI DUP1 PUSH1 0x1F LT PUSH2 0x10A4 JUMPI PUSH2 0x100 DUP1 DUP4 SLOAD DIV MUL DUP4 MSTORE SWAP2 PUSH1 0x20 ADD SWAP2 PUSH2 0x10CF JUMP JUMPDEST DUP3 ADD SWAP2 SWAP1 PUSH1 0x0 MSTORE PUSH1 0x20 PUSH1 0x0 KECCAK256 SWAP1 JUMPDEST DUP2 SLOAD DUP2 MSTORE SWAP1 PUSH1 0x1 ADD SWAP1 PUSH1 0x20 ADD DUP1 DUP4 GT PUSH2 0x10B2 JUMPI DUP3 SWAP1 SUB PUSH1 0x1F AND DUP3 ADD SWAP2 JUMPDEST POP POP POP POP POP SWAP1 DUP1 PUSH1 0x2 ADD DUP1 SLOAD PUSH2 0x10E4 SWAP1 PUSH2 0x1F9D JUMP JUMPDEST DUP1 PUSH1 0x1F ADD PUSH1 0x20 DUP1 SWAP2 DIV MUL PUSH1 0x20 ADD PUSH1 0x40 MLOAD SWAP1 DUP2 ADD PUSH1 0x40 MSTORE DUP1 SWAP3 SWAP2 SWAP1 DUP2 DUP2 MSTORE PUSH1 0x20 ADD DUP3 DUP1 SLOAD PUSH2 0x1110 SWAP1 PUSH2 0x1F9D JUMP JUMPDEST DUP1 ISZERO PUSH2 0x115D JUMPI DUP1 PUSH1 0x1F LT PUSH2 0x1132 JUMPI PUSH2 0x100 DUP1 DUP4 SLOAD DIV MUL DUP4 MSTORE SWAP2 PUSH1 0x20 ADD SWAP2 PUSH2 0x115D JUMP JUMPDEST DUP3 ADD SWAP2 SWAP1 PUSH1 0x0 MSTORE PUSH1 0x20 PUSH1 0x0 KECCAK256 SWAP1 JUMPDEST DUP2 SLOAD DUP2 MSTORE SWAP1 PUSH1 0x1 ADD SWAP1 PUSH1 0x20 ADD DUP1 DUP4 GT PUSH2 0x1140 JUMPI DUP3 SWAP1 SUB PUSH1 0x1F AND DUP3 ADD SWAP2 JUMPDEST POP POP POP POP POP SWAP1 DUP1 PUSH1 0x3 ADD DUP1 SLOAD PUSH2 0x1172 SWAP1 PUSH2 0x1F9D JUMP JUMPDEST DUP1 PUSH1 0x1F ADD PUSH1 0x20 DUP1 SWAP2 DIV MUL PUSH1 0x20 ADD PUSH1 0x40 MLOAD SWAP1 DUP2 ADD PUSH1 0x40 MSTORE DUP1 SWAP3 SWAP2 SWAP1 DUP2 DUP2 MSTORE PUSH1 0x20 ADD DUP3 DUP1 SLOAD PUSH2 0x119E SWAP1 PUSH2 0x1F9D JUMP JUMPDEST DUP1 ISZERO PUSH2 0x11EB JUMPI DUP1 PUSH1 0x1F LT PUSH2 0x11C0 JUMPI PUSH2 0x100 DUP1 DUP4 SLOAD DIV MUL DUP4 MSTORE SWAP2 PUSH1 0x20 ADD SWAP2 PUSH2 0x11EB JUMP JUMPDEST DUP3 ADD SWAP2 SWAP1 PUSH1 0x0 MSTORE PUSH1 0x20 PUSH1 0x0 KECCAK256 SWAP1 JUMPDEST DUP2 SLOAD DUP2 MSTORE SWAP1 PUSH1 0x1 ADD SWAP1 PUSH1 0x20 ADD DUP1 DUP4 GT PUSH2 0x11CE JUMPI DUP3 SWAP1 SUB PUSH1 0x1F AND DUP3 ADD SWAP2 JUMPDEST POP POP POP POP PUSH1 0x4 DUP4 ADD SLOAD PUSH1 0x5 DUP5 ADD SLOAD PUSH1 0x6 SWAP1 SWAP5 ADD SLOAD SWAP3 SWAP4 SWAP1 SWAP3 SWAP1 SWAP2 POP PUSH1 0xFF AND DUP8 JUMP JUMPDEST PUSH2 0x1256 PUSH1 0x40 MLOAD DUP1 PUSH2 0x100 ADD PUSH1 0x40 MSTORE DUP1 PUSH1 0x0 DUP2 MSTORE PUSH1 0x20 ADD PUSH1 0x60 DUP2 MSTORE PUSH1 0x20 ADD PUSH1 0x60 DUP2 MSTORE PUSH1 0x20 ADD PUSH1 0x60 DUP2 MSTORE PUSH1 0x20 ADD PUSH1 0x60 DUP2 MSTORE PUSH1 0x20 ADD PUSH1 0x60 DUP2 MSTORE PUSH1 0x20 ADD PUSH1 0x0 DUP2 MSTORE PUSH1 0x20 ADD PUSH1 0x0 ISZERO ISZERO DUP2 MSTORE POP SWAP1 JUMP JUMPDEST PUSH1 0x3 PUSH1 0x0 DUP4 DUP2 MSTORE PUSH1 0x20 ADD SWAP1 DUP2 MSTORE PUSH1 0x20 ADD PUSH1 0x0 KECCAK256 PUSH1 0x40 MLOAD DUP1 PUSH2 0x100 ADD PUSH1 0x40 MSTORE SWAP1 DUP2 PUSH1 0x0 DUP3 ADD SLOAD DUP2 MSTORE PUSH1 0x20 ADD PUSH1 0x1 DUP3 ADD DUP1 SLOAD PUSH2 0x128F SWAP1 PUSH2 0x1F9D JUMP JUMPDEST DUP1 PUSH1 0x1F ADD PUSH1 0x20 DUP1 SWAP2 DIV MUL PUSH1 0x20 ADD PUSH1 0x40 MLOAD SWAP1 DUP2 ADD PUSH1 0x40 MSTORE DUP1 SWAP3 SWAP2 SWAP1 DUP2 DUP2 MSTORE PUSH1 0x20 ADD DUP3 DUP1 SLOAD PUSH2 0x12BB SWAP1 PUSH2 0x1F9D JUMP JUMPDEST DUP1 ISZERO PUSH2 0x1308 JUMPI DUP1 PUSH1 0x1F LT PUSH2 0x12DD JUMPI PUSH2 0x100 DUP1 DUP4 SLOAD DIV MUL DUP4 MSTORE SWAP2 PUSH1 0x20 ADD SWAP2 PUSH2 0x1308 JUMP JUMPDEST DUP3 ADD SWAP2 SWAP1 PUSH1 0x0 MSTORE PUSH1 0x20 PUSH1 0x0 KECCAK256 SWAP1 JUMPDEST DUP2 SLOAD DUP2 MSTORE SWAP1 PUSH1 0x1 ADD SWAP1 PUSH1 0x20 ADD DUP1 DUP4 GT PUSH2 0x12EB JUMPI DUP3 SWAP1 SUB PUSH1 0x1F AND DUP3 ADD SWAP2 JUMPDEST POP POP POP POP POP DUP2 MSTORE PUSH1 0x20 ADD PUSH1 0x2 DUP3 ADD DUP1 SLOAD PUSH2 0x1321 SWAP1 PUSH2 0x1F9D JUMP JUMPDEST DUP1 PUSH1 0x1F ADD PUSH1 0x20 DUP1 SWAP2 DIV MUL PUSH1 0x20 ADD PUSH1 0x40 MLOAD SWAP1 DUP2 ADD PUSH1 0x40 MSTORE DUP1 SWAP3 SWAP2 SWAP1 DUP2 DUP2 MSTORE PUSH1 0x20 ADD DUP3 DUP1 SLOAD PUSH2 0x134D SWAP1 PUSH2 0x1F9D JUMP JUMPDEST DUP1 ISZERO PUSH2 0x139A JUMPI DUP1 PUSH1 0x1F LT PUSH2 0x136F JUMPI PUSH2 0x100 DUP1 DUP4 SLOAD DIV MUL DUP4 MSTORE SWAP2 PUSH1 0x20 ADD SWAP2 PUSH2 0x139A JUMP JUMPDEST DUP3 ADD SWAP2 SWAP1 PUSH1 0x0 MSTORE PUSH1 0x20 PUSH1 0x0 KECCAK256 SWAP1 JUMPDEST DUP2 SLOAD DUP2 MSTORE SWAP1 PUSH1 0x1 ADD SWAP1 PUSH1 0x20 ADD DUP1 DUP4 GT PUSH2 0x137D JUMPI DUP3 SWAP1 SUB PUSH1 0x1F AND DUP3 ADD SWAP2 JUMPDEST POP POP POP POP POP DUP2 MSTORE PUSH1 0x20 ADD PUSH1 0x3 DUP3 ADD DUP1 SLOAD PUSH2 0x13B3 SWAP1 PUSH2 0x1F9D JUMP JUMPDEST DUP1 PUSH1 0x1F ADD PUSH1 0x20 DUP1 SWAP2 DIV MUL PUSH1 0x20 ADD PUSH1 0x40 MLOAD SWAP1 DUP2 ADD PUSH1 0x40 MSTORE DUP1 SWAP3 SWAP2 SWAP1 DUP2 DUP2 MSTORE PUSH1 0x20 ADD DUP3 DUP1 SLOAD PUSH2 0x13DF SWAP1 PUSH2 0x1F9D JUMP JUMPDEST DUP1 ISZERO PUSH2 0x142C JUMPI DUP1 PUSH1 0x1F LT PUSH2 0x1401 JUMPI PUSH2 0x100 DUP1 DUP4 SLOAD DIV MUL DUP4 MSTORE SWAP2 PUSH1 0x20 ADD SWAP2 PUSH2 0x142C JUMP JUMPDEST DUP3 ADD SWAP2 SWAP1 PUSH1 0x0 MSTORE PUSH1 0x20 PUSH1 0x0 KECCAK256 SWAP1 JUMPDEST DUP2 SLOAD DUP2 MSTORE SWAP1 PUSH1 0x1 ADD SWAP1 PUSH1 0x20 ADD DUP1 DUP4 GT PUSH2 0x140F JUMPI DUP3 SWAP1 SUB PUSH1 0x1F AND DUP3 ADD SWAP2 JUMPDEST POP POP POP POP POP DUP2 MSTORE PUSH1 0x20 ADD PUSH1 0x4 DUP3 ADD DUP1 SLOAD PUSH2 0x1445 SWAP1 PUSH2 0x1F9D JUMP JUMPDEST DUP1 PUSH1 0x1F ADD PUSH1 0x20 DUP1 SWAP2 DIV MUL PUSH1 0x20 ADD PUSH1 0x40 MLOAD SWAP1 DUP2 ADD PUSH1 0x40 MSTORE DUP1 SWAP3 SWAP2 SWAP1 DUP2 DUP2 MSTORE PUSH1 0x20 ADD DUP3 DUP1 SLOAD PUSH2 0x1471 SWAP1 PUSH2 0x1F9D JUMP JUMPDEST DUP1 ISZERO PUSH2 0x14BE JUMPI DUP1 PUSH1 0x1F LT PUSH2 0x1493 JUMPI PUSH2 0x100 DUP1 DUP4 SLOAD DIV MUL DUP4 MSTORE SWAP2 PUSH1 0x20 ADD SWAP2 PUSH2 0x14BE JUMP JUMPDEST DUP3 ADD SWAP2 SWAP1 PUSH1 0x0 MSTORE PUSH1 0x20 PUSH1 0x0 KECCAK256 SWAP1 JUMPDEST DUP2 SLOAD DUP2 MSTORE SWAP1 PUSH1 0x1 ADD SWAP1 PUSH1 0x20 ADD DUP1 DUP4 GT PUSH2 0x14A1 JUMPI DUP3 SWAP1 SUB PUSH1 0x1F AND DUP3 ADD SWAP2 JUMPDEST POP POP POP POP POP DUP2 MSTORE PUSH1 0x20 ADD PUSH1 0x5 DUP3 ADD DUP1 SLOAD PUSH2 0x14D7 SWAP1 PUSH2 0x1F9D JUMP JUMPDEST DUP1 PUSH1 0x1F ADD PUSH1 0x20 DUP1 SWAP2 DIV MUL PUSH1 0x20 ADD PUSH1 0x40 MLOAD SWAP1 DUP2 ADD PUSH1 0x40 MSTORE DUP1 SWAP3 SWAP2 SWAP1 DUP2 DUP2 MSTORE PUSH1 0x20 ADD DUP3 DUP1 SLOAD PUSH2 0x1503 SWAP1 PUSH2 0x1F9D JUMP JUMPDEST DUP1 ISZERO PUSH2 0x1550 JUMPI DUP1 PUSH1 0x1F LT PUSH2 0x1525 JUMPI PUSH2 0x100 DUP1 DUP4 SLOAD DIV MUL DUP4 MSTORE SWAP2 PUSH1 0x20 ADD SWAP2 PUSH2 0x1550 JUMP JUMPDEST DUP3 ADD SWAP2 SWAP1 PUSH1 0x0 MSTORE PUSH1 0x20 PUSH1 0x0 KECCAK256 SWAP1 JUMPDEST DUP2 SLOAD DUP2 MSTORE SWAP1 PUSH1 0x1 ADD SWAP1 PUSH1 0x20 ADD DUP1 DUP4 GT PUSH2 0x1533 JUMPI DUP3 SWAP1 SUB PUSH1 0x1F AND DUP3 ADD SWAP2 JUMPDEST POP POP POP SWAP2 DUP4 MSTORE POP POP PUSH1 0x6 DUP3 ADD SLOAD PUSH1 0x20 DUP3 ADD MSTORE PUSH1 0x7 SWAP1 SWAP2 ADD SLOAD PUSH1 0xFF AND ISZERO ISZERO PUSH1 0x40 SWAP1 SWAP2 ADD MSTORE SWAP3 SWAP2 POP POP JUMP JUMPDEST PUSH1 0x7 PUSH1 0x20 MSTORE PUSH1 0x0 SWAP1 DUP2 MSTORE PUSH1 0x40 SWAP1 KECCAK256 DUP1 SLOAD PUSH2 0x1592 SWAP1 PUSH2 0x1F9D JUMP JUMPDEST DUP1 PUSH1 0x1F ADD PUSH1 0x20 DUP1 SWAP2 DIV MUL PUSH1 0x20 ADD PUSH1 0x40 MLOAD SWAP1 DUP2 ADD PUSH1 0x40 MSTORE DUP1 SWAP3 SWAP2 SWAP1 DUP2 DUP2 MSTORE PUSH1 0x20 ADD DUP3 DUP1 SLOAD PUSH2 0x15BE SWAP1 PUSH2 0x1F9D JUMP JUMPDEST DUP1 ISZERO PUSH2 0x160B JUMPI DUP1 PUSH1 0x1F LT PUSH2 0x15E0 JUMPI PUSH2 0x100 DUP1 DUP4 SLOAD DIV MUL DUP4 MSTORE SWAP2 PUSH1 0x20 ADD SWAP2 PUSH2 0x160B JUMP JUMPDEST DUP3 ADD SWAP2 SWAP1 PUSH1 0x0 MSTORE PUSH1 0x20 PUSH1 0x0 KECCAK256 SWAP1 JUMPDEST DUP2 SLOAD DUP2 MSTORE SWAP1 PUSH1 0x1 ADD SWAP1 PUSH1 0x20 ADD DUP1 DUP4 GT PUSH2 0x15EE JUMPI DUP3 SWAP1 SUB PUSH1 0x1F AND DUP3 ADD SWAP2 JUMPDEST POP POP POP POP POP DUP2 JUMP JUMPDEST DUP1 MLOAD PUSH1 0x20 DUP2 DUP4 ADD DUP2 ADD DUP1 MLOAD PUSH1 0x6 DUP3 MSTORE SWAP3 DUP3 ADD SWAP2 SWAP1 SWAP4 ADD KECCAK256 SWAP2 MSTORE DUP1 SLOAD DUP2 SWAP1 PUSH2 0xFC8 SWAP1 PUSH2 0x1F9D JUMP JUMPDEST PUSH2 0x1641 PUSH2 0x1930 JUMP JUMPDEST PUSH1 0x2 SLOAD PUSH1 0x1 PUSH1 0x1 PUSH1 0xA0 SHL SUB AND CALLER EQ PUSH2 0x169B JUMPI PUSH1 0x40 MLOAD PUSH3 0x461BCD PUSH1 0xE5 SHL DUP2 MSTORE PUSH1 0x20 PUSH1 0x4 DUP3 ADD MSTORE PUSH1 0x1F PUSH1 0x24 DUP3 ADD MSTORE PUSH32 0x596F7520617265206E6F742074686520636F6E7472616374206F776E65722100 PUSH1 0x44 DUP3 ADD MSTORE PUSH1 0x64 ADD PUSH2 0xBCB JUMP JUMPDEST PUSH1 0x4 DUP6 PUSH1 0x40 MLOAD PUSH2 0x16AB SWAP2 SWAP1 PUSH2 0x1FD7 JUMP JUMPDEST SWAP1 DUP2 MSTORE PUSH1 0x20 ADD PUSH1 0x40 MLOAD DUP1 SWAP2 SUB SWAP1 KECCAK256 SLOAD PUSH1 0x0 EQ PUSH2 0x1709 JUMPI PUSH1 0x40 MLOAD PUSH3 0x461BCD PUSH1 0xE5 SHL DUP2 MSTORE PUSH1 0x20 PUSH1 0x4 DUP3 ADD MSTORE PUSH1 0x19 PUSH1 0x24 DUP3 ADD MSTORE PUSH32 0x43616E64696461746520616C7265616479206578697374732100000000000000 PUSH1 0x44 DUP3 ADD MSTORE PUSH1 0x64 ADD PUSH2 0xBCB JUMP JUMPDEST PUSH2 0x1717 PUSH1 0x1 DUP1 SLOAD PUSH1 0x1 ADD SWAP1 SSTORE JUMP JUMPDEST PUSH1 0x0 PUSH2 0x1722 PUSH1 0x1 SLOAD SWAP1 JUMP JUMPDEST SWAP1 POP PUSH1 0x40 MLOAD DUP1 PUSH2 0x100 ADD PUSH1 0x40 MSTORE DUP1 DUP3 DUP2 MSTORE PUSH1 0x20 ADD DUP8 DUP2 MSTORE PUSH1 0x20 ADD DUP7 DUP2 MSTORE PUSH1 0x20 ADD DUP6 DUP2 MSTORE PUSH1 0x20 ADD DUP5 DUP2 MSTORE PUSH1 0x20 ADD DUP4 DUP2 MSTORE PUSH1 0x20 ADD PUSH1 0x0 DUP2 MSTORE PUSH1 0x20 ADD PUSH1 0x1 ISZERO ISZERO DUP2 MSTORE POP PUSH1 0x3 PUSH1 0x0 DUP4 DUP2 MSTORE PUSH1 0x20 ADD SWAP1 DUP2 MSTORE PUSH1 0x20 ADD PUSH1 0x0 KECCAK256 PUSH1 0x0 DUP3 ADD MLOAD DUP2 PUSH1 0x0 ADD SSTORE PUSH1 0x20 DUP3 ADD MLOAD DUP2 PUSH1 0x1 ADD SWAP1 DUP2 PUSH2 0x1794 SWAP2 SWAP1 PUSH2 0x20B4 JUMP JUMPDEST POP PUSH1 0x40 DUP3 ADD MLOAD PUSH1 0x2 DUP3 ADD SWAP1 PUSH2 0x17A9 SWAP1 DUP3 PUSH2 0x20B4 JUMP JUMPDEST POP PUSH1 0x60 DUP3 ADD MLOAD PUSH1 0x3 DUP3 ADD SWAP1 PUSH2 0x17BE SWAP1 DUP3 PUSH2 0x20B4 JUMP JUMPDEST POP PUSH1 0x80 DUP3 ADD MLOAD PUSH1 0x4 DUP3 ADD SWAP1 PUSH2 0x17D3 SWAP1 DUP3 PUSH2 0x20B4 JUMP JUMPDEST POP PUSH1 0xA0 DUP3 ADD MLOAD PUSH1 0x5 DUP3 ADD SWAP1 PUSH2 0x17E8 SWAP1 DUP3 PUSH2 0x20B4 JUMP JUMPDEST POP PUSH1 0xC0 DUP3 ADD MLOAD PUSH1 0x6 DUP3 ADD SSTORE PUSH1 0xE0 SWAP1 SWAP2 ADD MLOAD PUSH1 0x7 SWAP1 SWAP2 ADD DUP1 SLOAD PUSH1 0xFF NOT AND SWAP2 ISZERO ISZERO SWAP2 SWAP1 SWAP2 OR SWAP1 SSTORE PUSH1 0x0 DUP2 DUP2 MSTORE PUSH1 0x3 PUSH1 0x20 MSTORE PUSH1 0x40 DUP2 KECCAK256 PUSH1 0x5 DUP1 SLOAD PUSH1 0x1 DUP2 DUP2 ADD DUP4 SSTORE SWAP2 SWAP1 SWAP4 MSTORE DUP2 SLOAD PUSH32 0x36B6384B5ECA791C62761152D0C79BB0604C104A5FB6F4EB0703F3154BB3DB0 PUSH1 0x8 SWAP1 SWAP5 MUL SWAP4 DUP5 ADD SWAP1 DUP2 SSTORE SWAP2 SWAP3 PUSH32 0x36B6384B5ECA791C62761152D0C79BB0604C104A5FB6F4EB0703F3154BB3DB1 ADD SWAP1 PUSH2 0x1889 SWAP1 DUP5 ADD DUP3 PUSH2 0x2174 JUMP JUMPDEST POP PUSH1 0x2 DUP2 DUP2 ADD SWAP1 PUSH2 0x189C SWAP1 DUP5 ADD DUP3 PUSH2 0x2174 JUMP JUMPDEST POP PUSH1 0x3 DUP2 DUP2 ADD SWAP1 PUSH2 0x18AF SWAP1 DUP5 ADD DUP3 PUSH2 0x2174 JUMP JUMPDEST POP PUSH1 0x4 DUP2 DUP2 ADD SWAP1 PUSH2 0x18C2 SWAP1 DUP5 ADD DUP3 PUSH2 0x2174 JUMP JUMPDEST POP PUSH1 0x5 DUP2 DUP2 ADD SWAP1 PUSH2 0x18D5 SWAP1 DUP5 ADD DUP3 PUSH2 0x2174 JUMP JUMPDEST POP PUSH1 0x6 DUP3 DUP2 ADD SLOAD SWAP1 DUP3 ADD SSTORE PUSH1 0x7 SWAP2 DUP3 ADD SLOAD SWAP2 ADD DUP1 SLOAD PUSH1 0xFF NOT AND PUSH1 0xFF SWAP1 SWAP3 AND ISZERO ISZERO SWAP2 SWAP1 SWAP2 OR SWAP1 SSTORE PUSH1 0x40 MLOAD DUP2 SWAP1 PUSH1 0x4 SWAP1 PUSH2 0x190E SWAP1 DUP10 SWAP1 PUSH2 0x1FD7 JUMP JUMPDEST SWAP1 DUP2 MSTORE PUSH1 0x40 MLOAD SWAP1 DUP2 SWAP1 SUB PUSH1 0x20 ADD SWAP1 KECCAK256 SSTORE POP PUSH2 0x1929 PUSH1 0x1 PUSH1 0x0 SSTORE JUMP JUMPDEST POP POP POP POP POP JUMP JUMPDEST PUSH1 0x2 PUSH1 0x0 SLOAD SUB PUSH2 0x1982 JUMPI PUSH1 0x40 MLOAD PUSH3 0x461BCD PUSH1 0xE5 SHL DUP2 MSTORE PUSH1 0x20 PUSH1 0x4 DUP3 ADD MSTORE PUSH1 0x1F PUSH1 0x24 DUP3 ADD MSTORE PUSH32 0x5265656E7472616E637947756172643A207265656E7472616E742063616C6C00 PUSH1 0x44 DUP3 ADD MSTORE PUSH1 0x64 ADD PUSH2 0xBCB JUMP JUMPDEST PUSH1 0x2 PUSH1 0x0 SSTORE JUMP JUMPDEST PUSH1 0x0 JUMPDEST DUP4 DUP2 LT ISZERO PUSH2 0x19A4 JUMPI DUP2 DUP2 ADD MLOAD DUP4 DUP3 ADD MSTORE PUSH1 0x20 ADD PUSH2 0x198C JUMP JUMPDEST POP POP PUSH1 0x0 SWAP2 ADD MSTORE JUMP JUMPDEST PUSH1 0x0 DUP2 MLOAD DUP1 DUP5 MSTORE PUSH2 0x19C5 DUP2 PUSH1 0x20 DUP7 ADD PUSH1 0x20 DUP7 ADD PUSH2 0x1989 JUMP JUMPDEST PUSH1 0x1F ADD PUSH1 0x1F NOT AND SWAP3 SWAP1 SWAP3 ADD PUSH1 0x20 ADD SWAP3 SWAP2 POP POP JUMP JUMPDEST PUSH1 0x0 PUSH1 0x20 DUP1 DUP4 ADD DUP2 DUP5 MSTORE DUP1 DUP6 MLOAD DUP1 DUP4 MSTORE PUSH1 0x40 SWAP3 POP DUP3 DUP7 ADD SWAP2 POP DUP3 DUP2 PUSH1 0x5 SHL DUP8 ADD ADD DUP5 DUP9 ADD PUSH1 0x0 JUMPDEST DUP4 DUP2 LT ISZERO PUSH2 0x1AA7 JUMPI PUSH1 0x3F NOT DUP10 DUP5 SUB ADD DUP6 MSTORE DUP2 MLOAD PUSH1 0xE0 DUP2 MLOAD DUP2 DUP7 MSTORE PUSH2 0x1A26 DUP3 DUP8 ADD DUP3 PUSH2 0x19AD JUMP JUMPDEST SWAP2 POP POP DUP9 DUP3 ADD MLOAD DUP6 DUP3 SUB DUP11 DUP8 ADD MSTORE PUSH2 0x1A3E DUP3 DUP3 PUSH2 0x19AD JUMP JUMPDEST SWAP2 POP POP DUP8 DUP3 ADD MLOAD DUP6 DUP3 SUB DUP10 DUP8 ADD MSTORE PUSH2 0x1A56 DUP3 DUP3 PUSH2 0x19AD JUMP JUMPDEST SWAP2 POP POP PUSH1 0x60 DUP1 DUP4 ADD MLOAD DUP7 DUP4 SUB DUP3 DUP9 ADD MSTORE PUSH2 0x1A70 DUP4 DUP3 PUSH2 0x19AD JUMP JUMPDEST PUSH1 0x80 DUP6 DUP2 ADD MLOAD SWAP1 DUP10 ADD MSTORE PUSH1 0xA0 DUP1 DUP7 ADD MLOAD SWAP1 DUP10 ADD MSTORE PUSH1 0xC0 SWAP5 DUP6 ADD MLOAD ISZERO ISZERO SWAP5 SWAP1 SWAP8 ADD SWAP4 SWAP1 SWAP4 MSTORE POP POP POP SWAP4 DUP7 ADD SWAP4 SWAP1 DUP7 ADD SWAP1 PUSH1 0x1 ADD PUSH2 0x1A00 JUMP JUMPDEST POP SWAP1 SWAP9 SWAP8 POP POP POP POP POP POP POP POP JUMP JUMPDEST PUSH1 0x0 PUSH2 0x100 DUP3 MLOAD DUP5 MSTORE PUSH1 0x20 DUP4 ADD MLOAD DUP2 PUSH1 0x20 DUP7 ADD MSTORE PUSH2 0x1AD5 DUP3 DUP7 ADD DUP3 PUSH2 0x19AD JUMP JUMPDEST SWAP2 POP POP PUSH1 0x40 DUP4 ADD MLOAD DUP5 DUP3 SUB PUSH1 0x40 DUP7 ADD MSTORE PUSH2 0x1AEF DUP3 DUP3 PUSH2 0x19AD JUMP JUMPDEST SWAP2 POP POP PUSH1 0x60 DUP4 ADD MLOAD DUP5 DUP3 SUB PUSH1 0x60 DUP7 ADD MSTORE PUSH2 0x1B09 DUP3 DUP3 PUSH2 0x19AD JUMP JUMPDEST SWAP2 POP POP PUSH1 0x80 DUP4 ADD MLOAD DUP5 DUP3 SUB PUSH1 0x80 DUP7 ADD MSTORE PUSH2 0x1B23 DUP3 DUP3 PUSH2 0x19AD JUMP JUMPDEST SWAP2 POP POP PUSH1 0xA0 DUP4 ADD MLOAD DUP5 DUP3 SUB PUSH1 0xA0 DUP7 ADD MSTORE PUSH2 0x1B3D DUP3 DUP3 PUSH2 0x19AD JUMP JUMPDEST SWAP2 POP POP PUSH1 0xC0 DUP4 ADD MLOAD PUSH1 0xC0 DUP6 ADD MSTORE PUSH1 0xE0 DUP4 ADD MLOAD PUSH2 0x1B5D PUSH1 0xE0 DUP7 ADD DUP3 ISZERO ISZERO SWAP1 MSTORE JUMP JUMPDEST POP SWAP4 SWAP3 POP POP POP JUMP JUMPDEST PUSH1 0x0 PUSH1 0x20 DUP1 DUP4 ADD DUP2 DUP5 MSTORE DUP1 DUP6 MLOAD DUP1 DUP4 MSTORE PUSH1 0x40 DUP7 ADD SWAP2 POP PUSH1 0x40 DUP2 PUSH1 0x5 SHL DUP8 ADD ADD SWAP3 POP DUP4 DUP8 ADD PUSH1 0x0 JUMPDEST DUP3 DUP2 LT ISZERO PUSH2 0x1BBA JUMPI PUSH1 0x3F NOT DUP9 DUP7 SUB ADD DUP5 MSTORE PUSH2 0x1BA8 DUP6 DUP4 MLOAD PUSH2 0x1AB5 JUMP JUMPDEST SWAP5 POP SWAP3 DUP6 ADD SWAP3 SWAP1 DUP6 ADD SWAP1 PUSH1 0x1 ADD PUSH2 0x1B8C JUMP JUMPDEST POP SWAP3 SWAP8 SWAP7 POP POP POP POP POP POP POP JUMP JUMPDEST PUSH1 0x0 PUSH1 0x20 DUP3 DUP5 SUB SLT ISZERO PUSH2 0x1BD9 JUMPI PUSH1 0x0 DUP1 REVERT JUMPDEST POP CALLDATALOAD SWAP2 SWAP1 POP JUMP JUMPDEST PUSH1 0x0 PUSH2 0x100 DUP11 DUP4 MSTORE DUP1 PUSH1 0x20 DUP5 ADD MSTORE PUSH2 0x1BFA DUP2 DUP5 ADD DUP12 PUSH2 0x19AD JUMP JUMPDEST SWAP1 POP DUP3 DUP2 SUB PUSH1 0x40 DUP5 ADD MSTORE PUSH2 0x1C0E DUP2 DUP11 PUSH2 0x19AD JUMP JUMPDEST SWAP1 POP DUP3 DUP2 SUB PUSH1 0x60 DUP5 ADD MSTORE PUSH2 0x1C22 DUP2 DUP10 PUSH2 0x19AD JUMP JUMPDEST SWAP1 POP DUP3 DUP2 SUB PUSH1 0x80 DUP5 ADD MSTORE PUSH2 0x1C36 DUP2 DUP9 PUSH2 0x19AD JUMP JUMPDEST SWAP1 POP DUP3 DUP2 SUB PUSH1 0xA0 DUP5 ADD MSTORE PUSH2 0x1C4A DUP2 DUP8 PUSH2 0x19AD JUMP JUMPDEST PUSH1 0xC0 DUP5 ADD SWAP6 SWAP1 SWAP6 MSTORE POP POP SWAP1 ISZERO ISZERO PUSH1 0xE0 SWAP1 SWAP2 ADD MSTORE SWAP7 SWAP6 POP POP POP POP POP POP JUMP JUMPDEST PUSH4 0x4E487B71 PUSH1 0xE0 SHL PUSH1 0x0 MSTORE PUSH1 0x41 PUSH1 0x4 MSTORE PUSH1 0x24 PUSH1 0x0 REVERT JUMPDEST PUSH1 0x0 DUP3 PUSH1 0x1F DUP4 ADD SLT PUSH2 0x1C8E JUMPI PUSH1 0x0 DUP1 REVERT JUMPDEST DUP2 CALLDATALOAD PUSH8 0xFFFFFFFFFFFFFFFF DUP1 DUP3 GT ISZERO PUSH2 0x1CA9 JUMPI PUSH2 0x1CA9 PUSH2 0x1C67 JUMP JUMPDEST PUSH1 0x40 MLOAD PUSH1 0x1F DUP4 ADD PUSH1 0x1F NOT SWAP1 DUP2 AND PUSH1 0x3F ADD AND DUP2 ADD SWAP1 DUP3 DUP3 GT DUP2 DUP4 LT OR ISZERO PUSH2 0x1CD1 JUMPI PUSH2 0x1CD1 PUSH2 0x1C67 JUMP JUMPDEST DUP2 PUSH1 0x40 MSTORE DUP4 DUP2 MSTORE DUP7 PUSH1 0x20 DUP6 DUP9 ADD ADD GT ISZERO PUSH2 0x1CEA JUMPI PUSH1 0x0 DUP1 REVERT JUMPDEST DUP4 PUSH1 0x20 DUP8 ADD PUSH1 0x20 DUP4 ADD CALLDATACOPY PUSH1 0x0 PUSH1 0x20 DUP6 DUP4 ADD ADD MSTORE DUP1 SWAP5 POP POP POP POP POP SWAP3 SWAP2 POP POP JUMP JUMPDEST PUSH1 0x0 DUP1 PUSH1 0x0 DUP1 PUSH1 0x0 DUP1 PUSH1 0xC0 DUP8 DUP10 SUB SLT ISZERO PUSH2 0x1D23 JUMPI PUSH1 0x0 DUP1 REVERT JUMPDEST DUP7 CALLDATALOAD SWAP6 POP PUSH1 0x20 DUP8 ADD CALLDATALOAD PUSH8 0xFFFFFFFFFFFFFFFF DUP1 DUP3 GT ISZERO PUSH2 0x1D42 JUMPI PUSH1 0x0 DUP1 REVERT JUMPDEST PUSH2 0x1D4E DUP11 DUP4 DUP12 ADD PUSH2 0x1C7D JUMP JUMPDEST SWAP7 POP PUSH1 0x40 DUP10 ADD CALLDATALOAD SWAP2 POP DUP1 DUP3 GT ISZERO PUSH2 0x1D64 JUMPI PUSH1 0x0 DUP1 REVERT JUMPDEST PUSH2 0x1D70 DUP11 DUP4 DUP12 ADD PUSH2 0x1C7D JUMP JUMPDEST SWAP6 POP PUSH1 0x60 DUP10 ADD CALLDATALOAD SWAP2 POP DUP1 DUP3 GT ISZERO PUSH2 0x1D86 JUMPI PUSH1 0x0 DUP1 REVERT JUMPDEST PUSH2 0x1D92 DUP11 DUP4 DUP12 ADD PUSH2 0x1C7D JUMP JUMPDEST SWAP5 POP PUSH1 0x80 DUP10 ADD CALLDATALOAD SWAP2 POP DUP1 DUP3 GT ISZERO PUSH2 0x1DA8 JUMPI PUSH1 0x0 DUP1 REVERT JUMPDEST POP PUSH2 0x1DB5 DUP10 DUP3 DUP11 ADD PUSH2 0x1C7D JUMP JUMPDEST SWAP3 POP POP PUSH1 0xA0 DUP8 ADD CALLDATALOAD SWAP1 POP SWAP3 SWAP6 POP SWAP3 SWAP6 POP SWAP3 SWAP6 JUMP JUMPDEST PUSH1 0xE0 DUP2 MSTORE PUSH1 0x0 PUSH2 0x1DDC PUSH1 0xE0 DUP4 ADD DUP11 PUSH2 0x19AD JUMP JUMPDEST DUP3 DUP2 SUB PUSH1 0x20 DUP5 ADD MSTORE PUSH2 0x1DEE DUP2 DUP11 PUSH2 0x19AD JUMP JUMPDEST SWAP1 POP DUP3 DUP2 SUB PUSH1 0x40 DUP5 ADD MSTORE PUSH2 0x1E02 DUP2 DUP10 PUSH2 0x19AD JUMP JUMPDEST SWAP1 POP DUP3 DUP2 SUB PUSH1 0x60 DUP5 ADD MSTORE PUSH2 0x1E16 DUP2 DUP9 PUSH2 0x19AD JUMP JUMPDEST PUSH1 0x80 DUP5 ADD SWAP7 SWAP1 SWAP7 MSTORE POP POP PUSH1 0xA0 DUP2 ADD SWAP3 SWAP1 SWAP3 MSTORE ISZERO ISZERO PUSH1 0xC0 SWAP1 SWAP2 ADD MSTORE SWAP5 SWAP4 POP POP POP POP JUMP JUMPDEST PUSH1 0x0 PUSH1 0x20 DUP3 DUP5 SUB SLT ISZERO PUSH2 0x1E4A JUMPI PUSH1 0x0 DUP1 REVERT JUMPDEST DUP2 CALLDATALOAD PUSH8 0xFFFFFFFFFFFFFFFF DUP2 GT ISZERO PUSH2 0x1E61 JUMPI PUSH1 0x0 DUP1 REVERT JUMPDEST PUSH2 0x1E6D DUP5 DUP3 DUP6 ADD PUSH2 0x1C7D JUMP JUMPDEST SWAP5 SWAP4 POP POP POP POP JUMP JUMPDEST PUSH1 0x20 DUP2 MSTORE PUSH1 0x0 PUSH2 0x1E88 PUSH1 0x20 DUP4 ADD DUP5 PUSH2 0x1AB5 JUMP JUMPDEST SWAP4 SWAP3 POP POP POP JUMP JUMPDEST PUSH1 0x0 PUSH1 0x20 DUP3 DUP5 SUB SLT ISZERO PUSH2 0x1EA1 JUMPI PUSH1 0x0 DUP1 REVERT JUMPDEST DUP2 CALLDATALOAD PUSH1 0x1 PUSH1 0x1 PUSH1 0xA0 SHL SUB DUP2 AND DUP2 EQ PUSH2 0x1E88 JUMPI PUSH1 0x0 DUP1 REVERT JUMPDEST PUSH1 0x20 DUP2 MSTORE PUSH1 0x0 PUSH2 0x1E88 PUSH1 0x20 DUP4 ADD DUP5 PUSH2 0x19AD JUMP JUMPDEST PUSH1 0x0 DUP1 PUSH1 0x0 DUP1 PUSH1 0x0 PUSH1 0xA0 DUP7 DUP9 SUB SLT ISZERO PUSH2 0x1EE3 JUMPI PUSH1 0x0 DUP1 REVERT JUMPDEST DUP6 CALLDATALOAD PUSH8 0xFFFFFFFFFFFFFFFF DUP1 DUP3 GT ISZERO PUSH2 0x1EFB JUMPI PUSH1 0x0 DUP1 REVERT JUMPDEST PUSH2 0x1F07 DUP10 DUP4 DUP11 ADD PUSH2 0x1C7D JUMP JUMPDEST SWAP7 POP PUSH1 0x20 DUP9 ADD CALLDATALOAD SWAP2 POP DUP1 DUP3 GT ISZERO PUSH2 0x1F1D JUMPI PUSH1 0x0 DUP1 REVERT JUMPDEST PUSH2 0x1F29 DUP10 DUP4 DUP11 ADD PUSH2 0x1C7D JUMP JUMPDEST SWAP6 POP PUSH1 0x40 DUP9 ADD CALLDATALOAD SWAP2 POP DUP1 DUP3 GT ISZERO PUSH2 0x1F3F JUMPI PUSH1 0x0 DUP1 REVERT JUMPDEST PUSH2 0x1F4B DUP10 DUP4 DUP11 ADD PUSH2 0x1C7D JUMP JUMPDEST SWAP5 POP PUSH1 0x60 DUP9 ADD CALLDATALOAD SWAP2 POP DUP1 DUP3 GT ISZERO PUSH2 0x1F61 JUMPI PUSH1 0x0 DUP1 REVERT JUMPDEST PUSH2 0x1F6D DUP10 DUP4 DUP11 ADD PUSH2 0x1C7D JUMP JUMPDEST SWAP4 POP PUSH1 0x80 DUP9 ADD CALLDATALOAD SWAP2 POP DUP1 DUP3 GT ISZERO PUSH2 0x1F83 JUMPI PUSH1 0x0 DUP1 REVERT JUMPDEST POP PUSH2 0x1F90 DUP9 DUP3 DUP10 ADD PUSH2 0x1C7D JUMP JUMPDEST SWAP2 POP POP SWAP3 SWAP6 POP SWAP3 SWAP6 SWAP1 SWAP4 POP JUMP JUMPDEST PUSH1 0x1 DUP2 DUP2 SHR SWAP1 DUP3 AND DUP1 PUSH2 0x1FB1 JUMPI PUSH1 0x7F DUP3 AND SWAP2 POP JUMPDEST PUSH1 0x20 DUP3 LT DUP2 SUB PUSH2 0x1FD1 JUMPI PUSH4 0x4E487B71 PUSH1 0xE0 SHL PUSH1 0x0 MSTORE PUSH1 0x22 PUSH1 0x4 MSTORE PUSH1 0x24 PUSH1 0x0 REVERT JUMPDEST POP SWAP2 SWAP1 POP JUMP JUMPDEST PUSH1 0x0 DUP3 MLOAD PUSH2 0x1FE9 DUP2 DUP5 PUSH1 0x20 DUP8 ADD PUSH2 0x1989 JUMP JUMPDEST SWAP2 SWAP1 SWAP2 ADD SWAP3 SWAP2 POP POP JUMP JUMPDEST PUSH1 0x0 DUP1 DUP4 SLOAD PUSH2 0x2001 DUP2 PUSH2 0x1F9D JUMP JUMPDEST PUSH1 0x1 DUP3 DUP2 AND DUP1 ISZERO PUSH2 0x2019 JUMPI PUSH1 0x1 DUP2 EQ PUSH2 0x202E JUMPI PUSH2 0x205D JUMP JUMPDEST PUSH1 0xFF NOT DUP5 AND DUP8 MSTORE DUP3 ISZERO ISZERO DUP4 MUL DUP8 ADD SWAP5 POP PUSH2 0x205D JUMP JUMPDEST DUP8 PUSH1 0x0 MSTORE PUSH1 0x20 DUP1 PUSH1 0x0 KECCAK256 PUSH1 0x0 JUMPDEST DUP6 DUP2 LT ISZERO PUSH2 0x2054 JUMPI DUP2 SLOAD DUP11 DUP3 ADD MSTORE SWAP1 DUP5 ADD SWAP1 DUP3 ADD PUSH2 0x203B JUMP JUMPDEST POP POP POP DUP3 DUP8 ADD SWAP5 POP JUMPDEST POP SWAP3 SWAP7 SWAP6 POP POP POP POP POP POP JUMP JUMPDEST PUSH1 0x1F DUP3 GT ISZERO PUSH2 0x20AF JUMPI PUSH1 0x0 DUP2 DUP2 MSTORE PUSH1 0x20 DUP2 KECCAK256 PUSH1 0x1F DUP6 ADD PUSH1 0x5 SHR DUP2 ADD PUSH1 0x20 DUP7 LT ISZERO PUSH2 0x2090 JUMPI POP DUP1 JUMPDEST PUSH1 0x1F DUP6 ADD PUSH1 0x5 SHR DUP3 ADD SWAP2 POP JUMPDEST DUP2 DUP2 LT ISZERO PUSH2 0xF58 JUMPI DUP3 DUP2 SSTORE PUSH1 0x1 ADD PUSH2 0x209C JUMP JUMPDEST POP POP POP JUMP JUMPDEST DUP2 MLOAD PUSH8 0xFFFFFFFFFFFFFFFF DUP2 GT ISZERO PUSH2 0x20CE JUMPI PUSH2 0x20CE PUSH2 0x1C67 JUMP JUMPDEST PUSH2 0x20E2 DUP2 PUSH2 0x20DC DUP5 SLOAD PUSH2 0x1F9D JUMP JUMPDEST DUP5 PUSH2 0x2069 JUMP JUMPDEST PUSH1 0x20 DUP1 PUSH1 0x1F DUP4 GT PUSH1 0x1 DUP2 EQ PUSH2 0x2117 JUMPI PUSH1 0x0 DUP5 ISZERO PUSH2 0x20FF JUMPI POP DUP6 DUP4 ADD MLOAD JUMPDEST PUSH1 0x0 NOT PUSH1 0x3 DUP7 SWAP1 SHL SHR NOT AND PUSH1 0x1 DUP6 SWAP1 SHL OR DUP6 SSTORE PUSH2 0xF58 JUMP JUMPDEST PUSH1 0x0 DUP6 DUP2 MSTORE PUSH1 0x20 DUP2 KECCAK256 PUSH1 0x1F NOT DUP7 AND SWAP2 JUMPDEST DUP3 DUP2 LT ISZERO PUSH2 0x2146 JUMPI DUP9 DUP7 ADD MLOAD DUP3 SSTORE SWAP5 DUP5 ADD SWAP5 PUSH1 0x1 SWAP1 SWAP2 ADD SWAP1 DUP5 ADD PUSH2 0x2127 JUMP JUMPDEST POP DUP6 DUP3 LT ISZERO PUSH2 0x2164 JUMPI DUP8 DUP6 ADD MLOAD PUSH1 0x0 NOT PUSH1 0x3 DUP9 SWAP1 SHL PUSH1 0xF8 AND SHR NOT AND DUP2 SSTORE JUMPDEST POP POP POP POP POP PUSH1 0x1 SWAP1 DUP2 SHL ADD SWAP1 SSTORE POP JUMP JUMPDEST DUP2 DUP2 SUB PUSH2 0x217F JUMPI POP POP JUMP JUMPDEST PUSH2 0x2189 DUP3 SLOAD PUSH2 0x1F9D JUMP JUMPDEST PUSH8 0xFFFFFFFFFFFFFFFF DUP2 GT ISZERO PUSH2 0x21A1 JUMPI PUSH2 0x21A1 PUSH2 0x1C67 JUMP JUMPDEST PUSH2 0x21AF DUP2 PUSH2 0x20DC DUP5 SLOAD PUSH2 0x1F9D JUMP JUMPDEST PUSH1 0x0 PUSH1 0x1F DUP3 GT PUSH1 0x1 DUP2 EQ PUSH2 0x21E3 JUMPI PUSH1 0x0 DUP4 ISZERO PUSH2 0x21CB JUMPI POP DUP5 DUP3 ADD SLOAD JUMPDEST PUSH1 0x0 NOT PUSH1 0x3 DUP6 SWAP1 SHL SHR NOT AND PUSH1 0x1 DUP5 SWAP1 SHL OR DUP5 SSTORE PUSH2 0x1929 JUMP JUMPDEST PUSH1 0x0 DUP6 DUP2 MSTORE PUSH1 0x20 SWAP1 KECCAK256 PUSH1 0x1F NOT DUP5 AND SWAP1 PUSH1 0x0 DUP7 DUP2 MSTORE PUSH1 0x20 SWAP1 KECCAK256 DUP5 JUMPDEST DUP4 DUP2 LT ISZERO PUSH2 0x221D JUMPI DUP3 DUP7 ADD SLOAD DUP3 SSTORE PUSH1 0x1 SWAP6 DUP7 ADD SWAP6 SWAP1 SWAP2 ADD SWAP1 PUSH1 0x20 ADD PUSH2 0x21FD JUMP JUMPDEST POP DUP6 DUP4 LT ISZERO PUSH2 0x2164 JUMPI SWAP4 ADD SLOAD PUSH1 0x0 NOT PUSH1 0xF8 PUSH1 0x3 DUP8 SWAP1 SHL AND SHR NOT AND SWAP1 SWAP3 SSTORE POP POP PUSH1 0x1 SWAP1 DUP2 SHL ADD SWAP1 SSTORE POP JUMP JUMPDEST PUSH4 0x4E487B71 PUSH1 0xE0 SHL PUSH1 0x0 MSTORE PUSH1 0x11 PUSH1 0x4 MSTORE PUSH1 0x24 PUSH1 0x0 REVERT JUMPDEST DUP1 DUP3 ADD DUP1 DUP3 GT ISZERO PUSH2 0x2270 JUMPI PUSH2 0x2270 PUSH2 0x2247 JUMP JUMPDEST SWAP3 SWAP2 POP POP JUMP JUMPDEST PUSH4 0x4E487B71 PUSH1 0xE0 SHL PUSH1 0x0 MSTORE PUSH1 0x32 PUSH1 0x4 MSTORE PUSH1 0x24 PUSH1 0x0 REVERT JUMPDEST PUSH1 0x0 PUSH1 0x1 DUP3 ADD PUSH2 0x229E JUMPI PUSH2 0x229E PUSH2 0x2247 JUMP JUMPDEST POP PUSH1 0x1 ADD SWAP1 JUMP INVALID LOG2 PUSH5 0x6970667358 0x22 SLT KECCAK256 0xDE SHR 0x2E GASLIMIT 0xCB 0xC9 NUMBER LOG2 0x4B 0xAA 0x23 0x2D TIMESTAMP SDIV DUP2 0xEB 0xE3 0xA7 0xC5 PC 0xA8 CALLDATALOAD DUP13 0x2F 0xBD 0xCC STATICCALL LOG2 DIV 0xDC EQ SLOAD PUSH5 0x736F6C6343 STOP ADDMOD GT STOP CALLER "},"methodIdentifiers":{"Ids()":"b87f6a0a","candidateArray(uint256)":"35a893a1","candidateMap(uint256)":"0a4fa331","candidateToId(string)":"6847a451","contractOwner()":"ce606ee0","createCandidate(string,string,string,string,string)":"fdc15909","getCandidateInfo(uint256)":"70f67cfe","getCandidates()":"06a49fce","getUsers()":"00ce8e3e","userAddressToCin(address)":"a0b67cf1","userArray(uint256)":"41209af1","userMap(string)":"eb15f380","vote(uint256,string,string,string,string,uint256)":"17807115"}}}}}