{
  "_format": "hh-sol-artifact-1",
  "contractName": "Voting",
  "sourceName": "contracts/Voting.sol",
  "abi": [
    {
      "inputs": [],
      "stateMutability": "nonpayable",
      "type": "constructor"
    },
    {
      "inputs": [],
      "name": "Ids",
      "outputs": [
        {
          "internalType": "uint256",
          "name": "_value",
          "type": "uint256"
        }
      ],
      "stateMutability": "view",
      "type": "function"
    },
    {
      "inputs": [
        {
          "internalType": "uint256",
          "name": "",
          "type": "uint256"
        }
      ],
      "name": "candidateArray",
      "outputs": [
        {
          "internalType": "uint256",
          "name": "id",
          "type": "uint256"
        },
        {
          "internalType": "string",
          "name": "fullName",
          "type": "string"
        },
        {
          "internalType": "string",
          "name": "party",
          "type": "string"
        },
        {
          "internalType": "string",
          "name": "pdfUrl",
          "type": "string"
        },
        {
          "internalType": "string",
          "name": "imageUrl",
          "type": "string"
        },
        {
          "internalType": "string",
          "name": "projectDescription",
          "type": "string"
        },
        {
          "internalType": "uint256",
          "name": "numberOfVotes",
          "type": "uint256"
        },
        {
          "internalType": "bool",
          "name": "created",
          "type": "bool"
        }
      ],
      "stateMutability": "view",
      "type": "function"
    },
    {
      "inputs": [
        {
          "internalType": "uint256",
          "name": "",
          "type": "uint256"
        }
      ],
      "name": "candidateMap",
      "outputs": [
        {
          "internalType": "uint256",
          "name": "id",
          "type": "uint256"
        },
        {
          "internalType": "string",
          "name": "fullName",
          "type": "string"
        },
        {
          "internalType": "string",
          "name": "party",
          "type": "string"
        },
        {
          "internalType": "string",
          "name": "pdfUrl",
          "type": "string"
        },
        {
          "internalType": "string",
          "name": "imageUrl",
          "type": "string"
        },
        {
          "internalType": "string",
          "name": "projectDescription",
          "type": "string"
        },
        {
          "internalType": "uint256",
          "name": "numberOfVotes",
          "type": "uint256"
        },
        {
          "internalType": "bool",
          "name": "created",
          "type": "bool"
        }
      ],
      "stateMutability": "view",
      "type": "function"
    },
    {
      "inputs": [
        {
          "internalType": "string",
          "name": "",
          "type": "string"
        }
      ],
      "name": "candidateToId",
      "outputs": [
        {
          "internalType": "uint256",
          "name": "",
          "type": "uint256"
        }
      ],
      "stateMutability": "view",
      "type": "function"
    },
    {
      "inputs": [],
      "name": "contractOwner",
      "outputs": [
        {
          "internalType": "address",
          "name": "",
          "type": "address"
        }
      ],
      "stateMutability": "view",
      "type": "function"
    },
    {
      "inputs": [
        {
          "internalType": "string",
          "name": "candidateName",
          "type": "string"
        },
        {
          "internalType": "string",
          "name": "candidateParty",
          "type": "string"
        },
        {
          "internalType": "string",
          "name": "pdf_url",
          "type": "string"
        },
        {
          "internalType": "string",
          "name": "imageURL",
          "type": "string"
        },
        {
          "internalType": "string",
          "name": "description",
          "type": "string"
        }
      ],
      "name": "createCandidate",
      "outputs": [],
      "stateMutability": "nonpayable",
      "type": "function"
    },
    {
      "inputs": [
        {
          "internalType": "uint256",
          "name": "_id",
          "type": "uint256"
        }
      ],
      "name": "getCandidateInfo",
      "outputs": [
        {
          "components": [
            {
              "internalType": "uint256",
              "name": "id",
              "type": "uint256"
            },
            {
              "internalType": "string",
              "name": "fullName",
              "type": "string"
            },
            {
              "internalType": "string",
              "name": "party",
              "type": "string"
            },
            {
              "internalType": "string",
              "name": "pdfUrl",
              "type": "string"
            },
            {
              "internalType": "string",
              "name": "imageUrl",
              "type": "string"
            },
            {
              "internalType": "string",
              "name": "projectDescription",
              "type": "string"
            },
            {
              "internalType": "uint256",
              "name": "numberOfVotes",
              "type": "uint256"
            },
            {
              "internalType": "bool",
              "name": "created",
              "type": "bool"
            }
          ],
          "internalType": "struct Voting.candidate",
          "name": "",
          "type": "tuple"
        }
      ],
      "stateMutability": "view",
      "type": "function"
    },
    {
      "inputs": [],
      "name": "getCandidates",
      "outputs": [
        {
          "components": [
            {
              "internalType": "uint256",
              "name": "id",
              "type": "uint256"
            },
            {
              "internalType": "string",
              "name": "fullName",
              "type": "string"
            },
            {
              "internalType": "string",
              "name": "party",
              "type": "string"
            },
            {
              "internalType": "string",
              "name": "pdfUrl",
              "type": "string"
            },
            {
              "internalType": "string",
              "name": "imageUrl",
              "type": "string"
            },
            {
              "internalType": "string",
              "name": "projectDescription",
              "type": "string"
            },
            {
              "internalType": "uint256",
              "name": "numberOfVotes",
              "type": "uint256"
            },
            {
              "internalType": "bool",
              "name": "created",
              "type": "bool"
            }
          ],
          "internalType": "struct Voting.candidate[]",
          "name": "",
          "type": "tuple[]"
        }
      ],
      "stateMutability": "view",
      "type": "function"
    },
    {
      "inputs": [],
      "name": "getUsers",
      "outputs": [
        {
          "components": [
            {
              "internalType": "string",
              "name": "cin",
              "type": "string"
            },
            {
              "internalType": "string",
              "name": "city",
              "type": "string"
            },
            {
              "internalType": "string",
              "name": "country",
              "type": "string"
            },
            {
              "internalType": "string",
              "name": "gender",
              "type": "string"
            },
            {
              "internalType": "uint256",
              "name": "age",
              "type": "uint256"
            },
            {
              "internalType": "uint256",
              "name": "voteFor",
              "type": "uint256"
            },
            {
              "internalType": "bool",
              "name": "voted",
              "type": "bool"
            }
          ],
          "internalType": "struct Voting.user[]",
          "name": "",
          "type": "tuple[]"
        }
      ],
      "stateMutability": "view",
      "type": "function"
    },
    {
      "inputs": [
        {
          "internalType": "address",
          "name": "",
          "type": "address"
        }
      ],
      "name": "userAddressToCin",
      "outputs": [
        {
          "internalType": "string",
          "name": "",
          "type": "string"
        }
      ],
      "stateMutability": "view",
      "type": "function"
    },
    {
      "inputs": [
        {
          "internalType": "uint256",
          "name": "",
          "type": "uint256"
        }
      ],
      "name": "userArray",
      "outputs": [
        {
          "internalType": "string",
          "name": "cin",
          "type": "string"
        },
        {
          "internalType": "string",
          "name": "city",
          "type": "string"
        },
        {
          "internalType": "string",
          "name": "country",
          "type": "string"
        },
        {
          "internalType": "string",
          "name": "gender",
          "type": "string"
        },
        {
          "internalType": "uint256",
          "name": "age",
          "type": "uint256"
        },
        {
          "internalType": "uint256",
          "name": "voteFor",
          "type": "uint256"
        },
        {
          "internalType": "bool",
          "name": "voted",
          "type": "bool"
        }
      ],
      "stateMutability": "view",
      "type": "function"
    },
    {
      "inputs": [
        {
          "internalType": "string",
          "name": "",
          "type": "string"
        }
      ],
      "name": "userMap",
      "outputs": [
        {
          "internalType": "string",
          "name": "cin",
          "type": "string"
        },
        {
          "internalType": "string",
          "name": "city",
          "type": "string"
        },
        {
          "internalType": "string",
          "name": "country",
          "type": "string"
        },
        {
          "internalType": "string",
          "name": "gender",
          "type": "string"
        },
        {
          "internalType": "uint256",
          "name": "age",
          "type": "uint256"
        },
        {
          "internalType": "uint256",
          "name": "voteFor",
          "type": "uint256"
        },
        {
          "internalType": "bool",
          "name": "voted",
          "type": "bool"
        }
      ],
      "stateMutability": "view",
      "type": "function"
    },
    {
      "inputs": [
        {
          "internalType": "uint256",
          "name": "candidateId",
          "type": "uint256"
        },
        {
          "internalType": "string",
          "name": "_cin",
          "type": "string"
        },
        {
          "internalType": "string",
          "name": "_city",
          "type": "string"
        },
        {
          "internalType": "string",
          "name": "_country",
          "type": "string"
        },
        {
          "internalType": "string",
          "name": "_gender",
          "type": "string"
        },
        {
          "internalType": "uint256",
          "name": "_age",
          "type": "uint256"
        }
      ],
      "name": "vote",
      "outputs": [],
      "stateMutability": "nonpayable",
      "type": "function"
    }
  ],
  "bytecode": "0x608060405234801561001057600080fd5b506001600055600280546001600160a01b031916331790556122db806100376000396000f3fe608060405234801561001057600080fd5b50600436106100ce5760003560e01c80636847a4511161008c578063b87f6a0a11610066578063b87f6a0a146101f4578063ce606ee0146101fe578063eb15f38014610229578063fdc159091461023c57600080fd5b80636847a4511461017b57806370f67cfe146101b4578063a0b67cf1146101d457600080fd5b8062ce8e3e146100d357806306a49fce146100f15780630a4fa33114610106578063178071151461012d57806335a893a11461014257806341209af114610155575b600080fd5b6100db61024f565b6040516100e891906119d9565b60405180910390f35b6100f961051f565b6040516100e89190611b65565b610119610114366004611bc7565b610879565b6040516100e8989796959493929190611be0565b61014061013b366004611d0a565b610b66565b005b610119610150366004611bc7565b610f60565b610168610163366004611bc7565b610f95565b6040516100e89796959493929190611dc9565b6101a6610189366004611e38565b805160208183018101805160048252928201919093012091525481565b6040519081526020016100e8565b6101c76101c2366004611bc7565b61120c565b6040516100e89190611e75565b6101e76101e2366004611e8f565b611579565b6040516100e89190611eb8565b6001546101a69081565b600254610211906001600160a01b031681565b6040516001600160a01b0390911681526020016100e8565b610168610237366004611e38565b611613565b61014061024a366004611ecb565b611639565b60606008805480602002602001604051908101604052809291908181526020016000905b8282101561051657838290600052602060002090600702016040518060e00160405290816000820180546102a690611f9d565b80601f01602080910402602001604051908101604052809291908181526020018280546102d290611f9d565b801561031f5780601f106102f45761010080835404028352916020019161031f565b820191906000526020600020905b81548152906001019060200180831161030257829003601f168201915b5050505050815260200160018201805461033890611f9d565b80601f016020809104026020016040519081016040528092919081815260200182805461036490611f9d565b80156103b15780601f10610386576101008083540402835291602001916103b1565b820191906000526020600020905b81548152906001019060200180831161039457829003601f168201915b505050505081526020016002820180546103ca90611f9d565b80601f01602080910402602001604051908101604052809291908181526020018280546103f690611f9d565b80156104435780601f1061041857610100808354040283529160200191610443565b820191906000526020600020905b81548152906001019060200180831161042657829003601f168201915b5050505050815260200160038201805461045c90611f9d565b80601f016020809104026020016040519081016040528092919081815260200182805461048890611f9d565b80156104d55780601f106104aa576101008083540402835291602001916104d5565b820191906000526020600020905b8154815290600101906020018083116104b857829003601f168201915b505050918352505060048201546020808301919091526005830154604083015260069092015460ff1615156060909101529082526001929092019101610273565b50505050905090565b60606005805480602002602001604051908101604052809291908181526020016000905b828210156105165783829060005260206000209060080201604051806101000160405290816000820154815260200160018201805461058190611f9d565b80601f01602080910402602001604051908101604052809291908181526020018280546105ad90611f9d565b80156105fa5780601f106105cf576101008083540402835291602001916105fa565b820191906000526020600020905b8154815290600101906020018083116105dd57829003601f168201915b5050505050815260200160028201805461061390611f9d565b80601f016020809104026020016040519081016040528092919081815260200182805461063f90611f9d565b801561068c5780601f106106615761010080835404028352916020019161068c565b820191906000526020600020905b81548152906001019060200180831161066f57829003601f168201915b505050505081526020016003820180546106a590611f9d565b80601f01602080910402602001604051908101604052809291908181526020018280546106d190611f9d565b801561071e5780601f106106f35761010080835404028352916020019161071e565b820191906000526020600020905b81548152906001019060200180831161070157829003601f168201915b5050505050815260200160048201805461073790611f9d565b80601f016020809104026020016040519081016040528092919081815260200182805461076390611f9d565b80156107b05780601f10610785576101008083540402835291602001916107b0565b820191906000526020600020905b81548152906001019060200180831161079357829003601f168201915b505050505081526020016005820180546107c990611f9d565b80601f01602080910402602001604051908101604052809291908181526020018280546107f590611f9d565b80156108425780601f1061081757610100808354040283529160200191610842565b820191906000526020600020905b81548152906001019060200180831161082557829003601f168201915b5050509183525050600682015460208083019190915260079092015460ff1615156040909101529082526001929092019101610543565b6003602052600090815260409020805460018201805491929161089b90611f9d565b80601f01602080910402602001604051908101604052809291908181526020018280546108c790611f9d565b80156109145780601f106108e957610100808354040283529160200191610914565b820191906000526020600020905b8154815290600101906020018083116108f757829003601f168201915b50505050509080600201805461092990611f9d565b80601f016020809104026020016040519081016040528092919081815260200182805461095590611f9d565b80156109a25780601f10610977576101008083540402835291602001916109a2565b820191906000526020600020905b81548152906001019060200180831161098557829003601f168201915b5050505050908060030180546109b790611f9d565b80601f01602080910402602001604051908101604052809291908181526020018280546109e390611f9d565b8015610a305780601f10610a0557610100808354040283529160200191610a30565b820191906000526020600020905b815481529060010190602001808311610a1357829003601f168201915b505050505090806004018054610a4590611f9d565b80601f0160208091040260200160405190810160405280929190818152602001828054610a7190611f9d565b8015610abe5780601f10610a9357610100808354040283529160200191610abe565b820191906000526020600020905b815481529060010190602001808311610aa157829003601f168201915b505050505090806005018054610ad390611f9d565b80601f0160208091040260200160405190810160405280929190818152602001828054610aff90611f9d565b8015610b4c5780601f10610b2157610100808354040283529160200191610b4c565b820191906000526020600020905b815481529060010190602001808311610b2f57829003601f168201915b50505050600683015460079093015491929160ff16905088565b610b6e611930565b60008681526003602052604090206007015460ff16610bd45760405162461bcd60e51b815260206004820152601960248201527f4e6f2063616e646964617465207769746820746869732049640000000000000060448201526064015b60405180910390fd5b600685604051610be49190611fd7565b9081526040519081900360200190206006015460ff1615610c3c5760405162461bcd60e51b8152602060048201526012602482015271596f7520616c726561647920766f7465642160701b6044820152606401610bcb565b33600090815260076020526040908190209051600691610c5b91611ff3565b9081526040519081900360200190206006015460ff1615610ce45760405162461bcd60e51b815260206004820152603e60248201527f546869732077616c6c6574206164647265737320697320616c7265616479206c60448201527f696e6b656420746f20612043494e20746861742068617320766f7465642100006064820152608401610bcb565b6040518060e0016040528086815260200185815260200184815260200183815260200182815260200187815260200160011515815250600686604051610d2a9190611fd7565b90815260405190819003602001902081518190610d4790826120b4565b5060208201516001820190610d5c90826120b4565b5060408201516002820190610d7190826120b4565b5060608201516003820190610d8690826120b4565b506080820151600482015560a0820151600582015560c0909101516006918201805460ff191691151591909117905560405160089190610dc7908890611fd7565b90815260405160209181900382019020825460018101845560009384529190922060079091020180610df98382612174565b50600181810190610e0c90840182612174565b50600281810190610e1f90840182612174565b50600381810190610e3290840182612174565b506004828101549082015560058083015490820155600691820154908201805460ff191660ff909216151591909117905560008781526003602052604090200154610e7e90600161225d565b6000878152600360209081526040808320600601939093553382526007905220610ea886826120b4565b5060005b600554811015610f4d578660058281548110610eca57610eca612276565b90600052602060002090600802016000015403610f3b5760058181548110610ef457610ef4612276565b9060005260206000209060080201600601546001610f12919061225d565b60058281548110610f2557610f25612276565b9060005260206000209060080201600601819055505b80610f458161228c565b915050610eac565b50610f586001600055565b505050505050565b60058181548110610f7057600080fd5b6000918252602090912060089091020180546001820180549193509061089b90611f9d565b60088181548110610fa557600080fd5b9060005260206000209060070201600091509050806000018054610fc890611f9d565b80601f0160208091040260200160405190810160405280929190818152602001828054610ff490611f9d565b80156110415780601f1061101657610100808354040283529160200191611041565b820191906000526020600020905b81548152906001019060200180831161102457829003601f168201915b50505050509080600101805461105690611f9d565b80601f016020809104026020016040519081016040528092919081815260200182805461108290611f9d565b80156110cf5780601f106110a4576101008083540402835291602001916110cf565b820191906000526020600020905b8154815290600101906020018083116110b257829003601f168201915b5050505050908060020180546110e490611f9d565b80601f016020809104026020016040519081016040528092919081815260200182805461111090611f9d565b801561115d5780601f106111325761010080835404028352916020019161115d565b820191906000526020600020905b81548152906001019060200180831161114057829003601f168201915b50505050509080600301805461117290611f9d565b80601f016020809104026020016040519081016040528092919081815260200182805461119e90611f9d565b80156111eb5780601f106111c0576101008083540402835291602001916111eb565b820191906000526020600020905b8154815290600101906020018083116111ce57829003601f168201915b50505050600483015460058401546006909401549293909290915060ff1687565b611256604051806101000160405280600081526020016060815260200160608152602001606081526020016060815260200160608152602001600081526020016000151581525090565b60036000838152602001908152602001600020604051806101000160405290816000820154815260200160018201805461128f90611f9d565b80601f01602080910402602001604051908101604052809291908181526020018280546112bb90611f9d565b80156113085780601f106112dd57610100808354040283529160200191611308565b820191906000526020600020905b8154815290600101906020018083116112eb57829003601f168201915b5050505050815260200160028201805461132190611f9d565b80601f016020809104026020016040519081016040528092919081815260200182805461134d90611f9d565b801561139a5780601f1061136f5761010080835404028352916020019161139a565b820191906000526020600020905b81548152906001019060200180831161137d57829003601f168201915b505050505081526020016003820180546113b390611f9d565b80601f01602080910402602001604051908101604052809291908181526020018280546113df90611f9d565b801561142c5780601f106114015761010080835404028352916020019161142c565b820191906000526020600020905b81548152906001019060200180831161140f57829003601f168201915b5050505050815260200160048201805461144590611f9d565b80601f016020809104026020016040519081016040528092919081815260200182805461147190611f9d565b80156114be5780601f10611493576101008083540402835291602001916114be565b820191906000526020600020905b8154815290600101906020018083116114a157829003601f168201915b505050505081526020016005820180546114d790611f9d565b80601f016020809104026020016040519081016040528092919081815260200182805461150390611f9d565b80156115505780601f1061152557610100808354040283529160200191611550565b820191906000526020600020905b81548152906001019060200180831161153357829003601f168201915b50505091835250506006820154602082015260079091015460ff16151560409091015292915050565b6007602052600090815260409020805461159290611f9d565b80601f01602080910402602001604051908101604052809291908181526020018280546115be90611f9d565b801561160b5780601f106115e05761010080835404028352916020019161160b565b820191906000526020600020905b8154815290600101906020018083116115ee57829003601f168201915b505050505081565b8051602081830181018051600682529282019190930120915280548190610fc890611f9d565b611641611930565b6002546001600160a01b0316331461169b5760405162461bcd60e51b815260206004820152601f60248201527f596f7520617265206e6f742074686520636f6e7472616374206f776e657221006044820152606401610bcb565b6004856040516116ab9190611fd7565b9081526020016040518091039020546000146117095760405162461bcd60e51b815260206004820152601960248201527f43616e64696461746520616c72656164792065786973747321000000000000006044820152606401610bcb565b611717600180546001019055565b600061172260015490565b905060405180610100016040528082815260200187815260200186815260200185815260200184815260200183815260200160008152602001600115158152506003600083815260200190815260200160002060008201518160000155602082015181600101908161179491906120b4565b50604082015160028201906117a990826120b4565b50606082015160038201906117be90826120b4565b50608082015160048201906117d390826120b4565b5060a082015160058201906117e890826120b4565b5060c0820151600682015560e0909101516007909101805460ff1916911515919091179055600081815260036020526040812060058054600181810183559190935281547f036b6384b5eca791c62761152d0c79bb0604c104a5fb6f4eb0703f3154bb3db0600890940293840190815591927f036b6384b5eca791c62761152d0c79bb0604c104a5fb6f4eb0703f3154bb3db1019061188990840182612174565b5060028181019061189c90840182612174565b506003818101906118af90840182612174565b506004818101906118c290840182612174565b506005818101906118d590840182612174565b50600682810154908201556007918201549101805460ff191660ff9092161515919091179055604051819060049061190e908990611fd7565b90815260405190819003602001902055506119296001600055565b5050505050565b6002600054036119825760405162461bcd60e51b815260206004820152601f60248201527f5265656e7472616e637947756172643a207265656e7472616e742063616c6c006044820152606401610bcb565b6002600055565b60005b838110156119a457818101518382015260200161198c565b50506000910152565b600081518084526119c5816020860160208601611989565b601f01601f19169290920160200192915050565b60006020808301818452808551808352604092508286019150828160051b87010184880160005b83811015611aa757603f19898403018552815160e08151818652611a26828701826119ad565b915050888201518582038a870152611a3e82826119ad565b9150508782015185820389870152611a5682826119ad565b91505060608083015186830382880152611a7083826119ad565b6080858101519089015260a0808601519089015260c094850151151594909701939093525050509386019390860190600101611a00565b509098975050505050505050565b6000610100825184526020830151816020860152611ad5828601826119ad565b91505060408301518482036040860152611aef82826119ad565b91505060608301518482036060860152611b0982826119ad565b91505060808301518482036080860152611b2382826119ad565b91505060a083015184820360a0860152611b3d82826119ad565b91505060c083015160c085015260e0830151611b5d60e086018215159052565b509392505050565b6000602080830181845280855180835260408601915060408160051b870101925083870160005b82811015611bba57603f19888603018452611ba8858351611ab5565b94509285019290850190600101611b8c565b5092979650505050505050565b600060208284031215611bd957600080fd5b5035919050565b60006101008a8352806020840152611bfa8184018b6119ad565b90508281036040840152611c0e818a6119ad565b90508281036060840152611c2281896119ad565b90508281036080840152611c3681886119ad565b905082810360a0840152611c4a81876119ad565b60c0840195909552505090151560e0909101529695505050505050565b634e487b7160e01b600052604160045260246000fd5b600082601f830112611c8e57600080fd5b813567ffffffffffffffff80821115611ca957611ca9611c67565b604051601f8301601f19908116603f01168101908282118183101715611cd157611cd1611c67565b81604052838152866020858801011115611cea57600080fd5b836020870160208301376000602085830101528094505050505092915050565b60008060008060008060c08789031215611d2357600080fd5b86359550602087013567ffffffffffffffff80821115611d4257600080fd5b611d4e8a838b01611c7d565b96506040890135915080821115611d6457600080fd5b611d708a838b01611c7d565b95506060890135915080821115611d8657600080fd5b611d928a838b01611c7d565b94506080890135915080821115611da857600080fd5b50611db589828a01611c7d565b92505060a087013590509295509295509295565b60e081526000611ddc60e083018a6119ad565b8281036020840152611dee818a6119ad565b90508281036040840152611e0281896119ad565b90508281036060840152611e1681886119ad565b6080840196909652505060a0810192909252151560c090910152949350505050565b600060208284031215611e4a57600080fd5b813567ffffffffffffffff811115611e6157600080fd5b611e6d84828501611c7d565b949350505050565b602081526000611e886020830184611ab5565b9392505050565b600060208284031215611ea157600080fd5b81356001600160a01b0381168114611e8857600080fd5b602081526000611e8860208301846119ad565b600080600080600060a08688031215611ee357600080fd5b853567ffffffffffffffff80821115611efb57600080fd5b611f0789838a01611c7d565b96506020880135915080821115611f1d57600080fd5b611f2989838a01611c7d565b95506040880135915080821115611f3f57600080fd5b611f4b89838a01611c7d565b94506060880135915080821115611f6157600080fd5b611f6d89838a01611c7d565b93506080880135915080821115611f8357600080fd5b50611f9088828901611c7d565b9150509295509295909350565b600181811c90821680611fb157607f821691505b602082108103611fd157634e487b7160e01b600052602260045260246000fd5b50919050565b60008251611fe9818460208701611989565b9190910192915050565b600080835461200181611f9d565b60018281168015612019576001811461202e5761205d565b60ff198416875282151583028701945061205d565b8760005260208060002060005b858110156120545781548a82015290840190820161203b565b50505082870194505b50929695505050505050565b601f8211156120af57600081815260208120601f850160051c810160208610156120905750805b601f850160051c820191505b81811015610f585782815560010161209c565b505050565b815167ffffffffffffffff8111156120ce576120ce611c67565b6120e2816120dc8454611f9d565b84612069565b602080601f83116001811461211757600084156120ff5750858301515b600019600386901b1c1916600185901b178555610f58565b600085815260208120601f198616915b8281101561214657888601518255948401946001909101908401612127565b50858210156121645787850151600019600388901b60f8161c191681555b5050505050600190811b01905550565b81810361217f575050565b6121898254611f9d565b67ffffffffffffffff8111156121a1576121a1611c67565b6121af816120dc8454611f9d565b6000601f8211600181146121e357600083156121cb5750848201545b600019600385901b1c1916600184901b178455611929565b600085815260209020601f19841690600086815260209020845b8381101561221d57828601548255600195860195909101906020016121fd565b50858310156121645793015460001960f8600387901b161c19169092555050600190811b01905550565b634e487b7160e01b600052601160045260246000fd5b8082018082111561227057612270612247565b92915050565b634e487b7160e01b600052603260045260246000fd5b60006001820161229e5761229e612247565b506001019056fea2646970667358221220de1c2e45cbc943a24baa232d420581ebe3a7c558a8358c2fbdccfaa204dc145464736f6c63430008110033",
  "linkReferences": {},
  "deployedLinkReferences": {}
}